{
  "_format": "hh-sol-artifact-1",
  "contractName": "Depictorial",
  "sourceName": "contracts/Depictorial.sol",
  "abi": [
    {
      "inputs": [],
      "stateMutability": "nonpayable",
      "type": "constructor"
    },
    {
      "inputs": [
        {
          "internalType": "uint256",
          "name": "",
          "type": "uint256"
        }
      ],
      "name": "atomics",
      "outputs": [
        {
          "internalType": "uint256",
          "name": "Id",
          "type": "uint256"
        },
        {
          "internalType": "enum Depictorial.Type",
          "name": "AssetType",
          "type": "uint8"
        },
        {
          "internalType": "enum Depictorial.DeItemType",
          "name": "ItemType",
          "type": "uint8"
        },
        {
          "internalType": "address payable",
          "name": "Owner",
          "type": "address"
        },
        {
          "internalType": "string",
          "name": "metaData",
          "type": "string"
        }
      ],
      "stateMutability": "view",
      "type": "function"
    },
    {
      "inputs": [
        {
          "internalType": "uint256",
          "name": "_licenseId",
          "type": "uint256"
        },
        {
          "internalType": "uint256",
          "name": "_deItemId",
          "type": "uint256"
        },
        {
          "internalType": "enum Depictorial.Type",
          "name": "_assetType",
          "type": "uint8"
        }
      ],
      "name": "buyDeItem",
      "outputs": [
        {
          "internalType": "uint256",
          "name": "",
          "type": "uint256"
        }
      ],
      "stateMutability": "payable",
      "type": "function"
    },
    {
      "inputs": [
        {
          "internalType": "uint256",
          "name": "",
          "type": "uint256"
        }
      ],
      "name": "collections",
      "outputs": [
        {
          "internalType": "uint256",
          "name": "Id",
          "type": "uint256"
        },
        {
          "internalType": "enum Depictorial.Type",
          "name": "AssetType",
          "type": "uint8"
        },
        {
          "internalType": "enum Depictorial.DeItemType",
          "name": "ItemType",
          "type": "uint8"
        },
        {
          "internalType": "address payable",
          "name": "Owner",
          "type": "address"
        },
        {
          "internalType": "string",
          "name": "metaData",
          "type": "string"
        }
      ],
      "stateMutability": "view",
      "type": "function"
    },
    {
      "inputs": [
        {
          "internalType": "enum Depictorial.Type",
          "name": "_assetType",
          "type": "uint8"
        },
        {
          "internalType": "enum Depictorial.DeItemType",
          "name": "_itemType",
          "type": "uint8"
        },
        {
          "internalType": "uint256[]",
          "name": "_licenseIds",
          "type": "uint256[]"
        },
        {
          "internalType": "string",
          "name": "_metaData",
          "type": "string"
        }
      ],
      "name": "createDeItem",
      "outputs": [
        {
          "internalType": "uint256",
          "name": "",
          "type": "uint256"
        }
      ],
      "stateMutability": "nonpayable",
      "type": "function"
    },
    {
      "inputs": [
        {
          "internalType": "uint256",
          "name": "_price",
          "type": "uint256"
        },
        {
          "internalType": "uint256",
          "name": "_duration",
          "type": "uint256"
        },
        {
          "internalType": "string",
          "name": "_metaData",
          "type": "string"
        }
      ],
      "name": "createLicense",
      "outputs": [
        {
          "internalType": "uint256",
          "name": "",
          "type": "uint256"
        }
      ],
      "stateMutability": "nonpayable",
      "type": "function"
    },
    {
      "inputs": [],
      "name": "destroy",
      "outputs": [],
      "stateMutability": "nonpayable",
      "type": "function"
    },
    {
      "inputs": [],
      "name": "getAllAtomics",
      "outputs": [
        {
          "components": [
            {
              "internalType": "uint256",
              "name": "Id",
              "type": "uint256"
            },
            {
              "internalType": "enum Depictorial.Type",
              "name": "AssetType",
              "type": "uint8"
            },
            {
              "internalType": "enum Depictorial.DeItemType",
              "name": "ItemType",
              "type": "uint8"
            },
            {
              "internalType": "address payable",
              "name": "Owner",
              "type": "address"
            },
            {
              "internalType": "uint256[]",
              "name": "licenseIds",
              "type": "uint256[]"
            },
            {
              "internalType": "string",
              "name": "metaData",
              "type": "string"
            }
          ],
          "internalType": "struct Depictorial.DeItem[]",
          "name": "",
          "type": "tuple[]"
        }
      ],
      "stateMutability": "view",
      "type": "function"
    },
    {
      "inputs": [
        {
          "internalType": "enum Depictorial.DeItemType",
          "name": "_itemType",
          "type": "uint8"
        }
      ],
      "name": "getAllAtomicsByItemType",
      "outputs": [
        {
          "components": [
            {
              "internalType": "uint256",
              "name": "Id",
              "type": "uint256"
            },
            {
              "internalType": "enum Depictorial.Type",
              "name": "AssetType",
              "type": "uint8"
            },
            {
              "internalType": "enum Depictorial.DeItemType",
              "name": "ItemType",
              "type": "uint8"
            },
            {
              "internalType": "address payable",
              "name": "Owner",
              "type": "address"
            },
            {
              "internalType": "uint256[]",
              "name": "licenseIds",
              "type": "uint256[]"
            },
            {
              "internalType": "string",
              "name": "metaData",
              "type": "string"
            }
          ],
          "internalType": "struct Depictorial.DeItem[]",
          "name": "",
          "type": "tuple[]"
        }
      ],
      "stateMutability": "view",
      "type": "function"
    },
    {
      "inputs": [],
      "name": "getAllCollections",
      "outputs": [
        {
          "components": [
            {
              "internalType": "uint256",
              "name": "Id",
              "type": "uint256"
            },
            {
              "internalType": "enum Depictorial.Type",
              "name": "AssetType",
              "type": "uint8"
            },
            {
              "internalType": "enum Depictorial.DeItemType",
              "name": "ItemType",
              "type": "uint8"
            },
            {
              "internalType": "address payable",
              "name": "Owner",
              "type": "address"
            },
            {
              "internalType": "uint256[]",
              "name": "licenseIds",
              "type": "uint256[]"
            },
            {
              "internalType": "string",
              "name": "metaData",
              "type": "string"
            }
          ],
          "internalType": "struct Depictorial.DeItem[]",
          "name": "",
          "type": "tuple[]"
        }
      ],
      "stateMutability": "view",
      "type": "function"
    },
    {
      "inputs": [
        {
          "internalType": "enum Depictorial.DeItemType",
          "name": "_itemType",
          "type": "uint8"
        }
      ],
      "name": "getAllCollectionsByItemType",
      "outputs": [
        {
          "components": [
            {
              "internalType": "uint256",
              "name": "Id",
              "type": "uint256"
            },
            {
              "internalType": "enum Depictorial.Type",
              "name": "AssetType",
              "type": "uint8"
            },
            {
              "internalType": "enum Depictorial.DeItemType",
              "name": "ItemType",
              "type": "uint8"
            },
            {
              "internalType": "address payable",
              "name": "Owner",
              "type": "address"
            },
            {
              "internalType": "uint256[]",
              "name": "licenseIds",
              "type": "uint256[]"
            },
            {
              "internalType": "string",
              "name": "metaData",
              "type": "string"
            }
          ],
          "internalType": "struct Depictorial.DeItem[]",
          "name": "",
          "type": "tuple[]"
        }
      ],
      "stateMutability": "view",
      "type": "function"
    },
    {
      "inputs": [],
      "name": "getAllLicenses",
      "outputs": [
        {
          "components": [
            {
              "internalType": "uint256",
              "name": "Id",
              "type": "uint256"
            },
            {
              "internalType": "address payable",
              "name": "Owner",
              "type": "address"
            },
            {
              "internalType": "uint256",
              "name": "Price",
              "type": "uint256"
            },
            {
              "internalType": "uint256",
              "name": "Duration",
              "type": "uint256"
            },
            {
              "internalType": "string",
              "name": "metaData",
              "type": "string"
            }
          ],
          "internalType": "struct Depictorial.Licecnse[]",
          "name": "",
          "type": "tuple[]"
        }
      ],
      "stateMutability": "view",
      "type": "function"
    },
    {
      "inputs": [
        {
          "internalType": "uint256",
          "name": "_deItemId",
          "type": "uint256"
        },
        {
          "internalType": "enum Depictorial.Type",
          "name": "_assetType",
          "type": "uint8"
        }
      ],
      "name": "getDeItemById",
      "outputs": [
        {
          "components": [
            {
              "internalType": "uint256",
              "name": "Id",
              "type": "uint256"
            },
            {
              "internalType": "enum Depictorial.Type",
              "name": "AssetType",
              "type": "uint8"
            },
            {
              "internalType": "enum Depictorial.DeItemType",
              "name": "ItemType",
              "type": "uint8"
            },
            {
              "internalType": "address payable",
              "name": "Owner",
              "type": "address"
            },
            {
              "internalType": "uint256[]",
              "name": "licenseIds",
              "type": "uint256[]"
            },
            {
              "internalType": "string",
              "name": "metaData",
              "type": "string"
            }
          ],
          "internalType": "struct Depictorial.DeItem",
          "name": "deItemDetails",
          "type": "tuple"
        },
        {
          "components": [
            {
              "internalType": "uint256",
              "name": "Id",
              "type": "uint256"
            },
            {
              "internalType": "address payable",
              "name": "Owner",
              "type": "address"
            },
            {
              "internalType": "uint256",
              "name": "Price",
              "type": "uint256"
            },
            {
              "internalType": "uint256",
              "name": "Duration",
              "type": "uint256"
            },
            {
              "internalType": "string",
              "name": "metaData",
              "type": "string"
            }
          ],
          "internalType": "struct Depictorial.Licecnse[]",
          "name": "licenseDetails",
          "type": "tuple[]"
        },
        {
          "components": [
            {
              "internalType": "uint256",
              "name": "Id",
              "type": "uint256"
            },
            {
              "internalType": "address payable",
              "name": "Buyer",
              "type": "address"
            },
            {
              "internalType": "uint256",
              "name": "licenseId",
              "type": "uint256"
            },
            {
              "internalType": "uint256",
              "name": "DeItemId",
              "type": "uint256"
            },
            {
              "internalType": "enum Depictorial.Type",
              "name": "AssetType",
              "type": "uint8"
            }
          ],
          "internalType": "struct Depictorial.Purchase[]",
          "name": "purchaseDetails",
          "type": "tuple[]"
        }
      ],
      "stateMutability": "view",
      "type": "function"
    },
    {
      "inputs": [
        {
          "internalType": "uint256[]",
          "name": "_deItemIds",
          "type": "uint256[]"
        },
        {
          "internalType": "enum Depictorial.Type",
          "name": "_assetType",
          "type": "uint8"
        }
      ],
      "name": "getDeItemsByType",
      "outputs": [
        {
          "components": [
            {
              "internalType": "uint256",
              "name": "Id",
              "type": "uint256"
            },
            {
              "internalType": "enum Depictorial.Type",
              "name": "AssetType",
              "type": "uint8"
            },
            {
              "internalType": "enum Depictorial.DeItemType",
              "name": "ItemType",
              "type": "uint8"
            },
            {
              "internalType": "address payable",
              "name": "Owner",
              "type": "address"
            },
            {
              "internalType": "uint256[]",
              "name": "licenseIds",
              "type": "uint256[]"
            },
            {
              "internalType": "string",
              "name": "metaData",
              "type": "string"
            }
          ],
          "internalType": "struct Depictorial.DeItem[]",
          "name": "DeItems",
          "type": "tuple[]"
        }
      ],
      "stateMutability": "view",
      "type": "function"
    },
    {
      "inputs": [
        {
          "internalType": "address",
          "name": "_addr",
          "type": "address"
        }
      ],
      "name": "getUserDetails",
      "outputs": [
        {
          "components": [
            {
              "internalType": "uint256",
              "name": "Id",
              "type": "uint256"
            },
            {
              "internalType": "enum Depictorial.Type",
              "name": "AssetType",
              "type": "uint8"
            },
            {
              "internalType": "enum Depictorial.DeItemType",
              "name": "ItemType",
              "type": "uint8"
            },
            {
              "internalType": "address payable",
              "name": "Owner",
              "type": "address"
            },
            {
              "internalType": "uint256[]",
              "name": "licenseIds",
              "type": "uint256[]"
            },
            {
              "internalType": "string",
              "name": "metaData",
              "type": "string"
            }
          ],
          "internalType": "struct Depictorial.DeItem[]",
          "name": "atomicDetails",
          "type": "tuple[]"
        },
        {
          "components": [
            {
              "internalType": "uint256",
              "name": "Id",
              "type": "uint256"
            },
            {
              "internalType": "enum Depictorial.Type",
              "name": "AssetType",
              "type": "uint8"
            },
            {
              "internalType": "enum Depictorial.DeItemType",
              "name": "ItemType",
              "type": "uint8"
            },
            {
              "internalType": "address payable",
              "name": "Owner",
              "type": "address"
            },
            {
              "internalType": "uint256[]",
              "name": "licenseIds",
              "type": "uint256[]"
            },
            {
              "internalType": "string",
              "name": "metaData",
              "type": "string"
            }
          ],
          "internalType": "struct Depictorial.DeItem[]",
          "name": "collectionDetails",
          "type": "tuple[]"
        },
        {
          "components": [
            {
              "internalType": "uint256",
              "name": "Id",
              "type": "uint256"
            },
            {
              "internalType": "address payable",
              "name": "Owner",
              "type": "address"
            },
            {
              "internalType": "uint256",
              "name": "Price",
              "type": "uint256"
            },
            {
              "internalType": "uint256",
              "name": "Duration",
              "type": "uint256"
            },
            {
              "internalType": "string",
              "name": "metaData",
              "type": "string"
            }
          ],
          "internalType": "struct Depictorial.Licecnse[]",
          "name": "licenseDetails",
          "type": "tuple[]"
        },
        {
          "components": [
            {
              "internalType": "uint256",
              "name": "Id",
              "type": "uint256"
            },
            {
              "internalType": "address payable",
              "name": "Buyer",
              "type": "address"
            },
            {
              "internalType": "uint256",
              "name": "licenseId",
              "type": "uint256"
            },
            {
              "internalType": "uint256",
              "name": "DeItemId",
              "type": "uint256"
            },
            {
              "internalType": "enum Depictorial.Type",
              "name": "AssetType",
              "type": "uint8"
            }
          ],
          "internalType": "struct Depictorial.Purchase[]",
          "name": "purchaseDetails",
          "type": "tuple[]"
        }
      ],
      "stateMutability": "view",
      "type": "function"
    },
    {
      "inputs": [],
      "name": "init",
      "outputs": [],
      "stateMutability": "nonpayable",
      "type": "function"
    },
    {
      "inputs": [],
      "name": "isUserRegistered",
      "outputs": [
        {
          "internalType": "bool",
          "name": "",
          "type": "bool"
        }
      ],
      "stateMutability": "view",
      "type": "function"
    },
    {
      "inputs": [
        {
          "internalType": "uint256",
          "name": "",
          "type": "uint256"
        }
      ],
      "name": "licenses",
      "outputs": [
        {
          "internalType": "uint256",
          "name": "Id",
          "type": "uint256"
        },
        {
          "internalType": "address payable",
          "name": "Owner",
          "type": "address"
        },
        {
          "internalType": "uint256",
          "name": "Price",
          "type": "uint256"
        },
        {
          "internalType": "uint256",
          "name": "Duration",
          "type": "uint256"
        },
        {
          "internalType": "string",
          "name": "metaData",
          "type": "string"
        }
      ],
      "stateMutability": "view",
      "type": "function"
    },
    {
      "inputs": [
        {
          "internalType": "uint256",
          "name": "",
          "type": "uint256"
        }
      ],
      "name": "purchases",
      "outputs": [
        {
          "internalType": "uint256",
          "name": "Id",
          "type": "uint256"
        },
        {
          "internalType": "address payable",
          "name": "Buyer",
          "type": "address"
        },
        {
          "internalType": "uint256",
          "name": "licenseId",
          "type": "uint256"
        },
        {
          "internalType": "uint256",
          "name": "DeItemId",
          "type": "uint256"
        },
        {
          "internalType": "enum Depictorial.Type",
          "name": "AssetType",
          "type": "uint8"
        }
      ],
      "stateMutability": "view",
      "type": "function"
    },
    {
      "inputs": [
        {
          "internalType": "address",
          "name": "_addr",
          "type": "address"
        }
      ],
      "name": "registerUser",
      "outputs": [
        {
          "internalType": "bool",
          "name": "",
          "type": "bool"
        }
      ],
      "stateMutability": "nonpayable",
      "type": "function"
    },
    {
      "inputs": [
        {
          "internalType": "address",
          "name": "",
          "type": "address"
        }
      ],
      "name": "users",
      "outputs": [
        {
          "internalType": "address payable",
          "name": "userAddress",
          "type": "address"
        }
      ],
      "stateMutability": "view",
      "type": "function"
    },
    {
      "inputs": [],
      "name": "withdraw",
      "outputs": [],
      "stateMutability": "nonpayable",
      "type": "function"
    }
  ],
  "bytecode": "0x608060405260196006556103e860075560646008553480156200002157600080fd5b506001600081815560058054336001600160a01b03199091161790556040805160c081018252828152602080820185815282840185905260608301859052835185815280830185526080840152835180850190945260128452712232b330bab63a1021b7b63632b1ba34b7b760711b9184019190915260a0820192909252600a805480860182559352805160049093027fc65a7bb8d6351c1cf70c95a316cc6a92839c986682d98bc35f958f4883f9d2a8810193845591517fc65a7bb8d6351c1cf70c95a316cc6a92839c986682d98bc35f958f4883f9d2a990920180549194909160ff19169083818111156200011c576200011c62000b3d565b0217905550604082015160018201805461ff00191661010083600381111562000149576200014962000b3d565b021790555060608201516001820180546001600160a01b03909216620100000262010000600160b01b0319909216919091179055608082015180516200019a91600284019160209091019062000a5a565b5060a08201518051620001b891600384019160209091019062000aaa565b505050600b6040518060c001604052806000815260200160006001811115620001e557620001e562000b3d565b81526000602080830182905260408084018390528051838152808301825260608501528051808201909152600e81526d44656661756c742041746f6d696360901b81830152608090930192909252835460018082018655948252908290208351600490920201908155908201518184018054939492939192909160ff191690838181111562000278576200027862000b3d565b0217905550604082015160018201805461ff001916610100836003811115620002a557620002a562000b3d565b021790555060608201516001820180546001600160a01b03909216620100000262010000600160b01b031990921691909117905560808201518051620002f691600284019160209091019062000a5a565b5060a082015180516200031491600384019160209091019062000aaa565b50506040805160a08101825260008082526020808301828152838501838152606085018481528651808801909752600f87526e44656661756c74204c6963656e736560881b8785015260808601968752600c8054600181018255955285517fdf6966c971051c3d54ec59162606531493a51404a002842f56009d7e5cf4a8c7600590960295860190815592517fdf6966c971051c3d54ec59162606531493a51404a002842f56009d7e5cf4a8c8860180546001600160a01b0319166001600160a01b0390921691909117905590517fdf6966c971051c3d54ec59162606531493a51404a002842f56009d7e5cf4a8c9850155517fdf6966c971051c3d54ec59162606531493a51404a002842f56009d7e5cf4a8ca8401559351805193955062000465937fdf6966c971051c3d54ec59162606531493a51404a002842f56009d7e5cf4a8cb9093019291019062000aaa565b505050600d6040518060a001604052806000815260200160006001600160a01b03168152602001600081526020016000815260200160006001811115620004b057620004b062000b3d565b9052815460018082018455600093845260209384902083516005909302019182559282015181840180546001600160a01b0319166001600160a01b0390921691909117905560408201516002820155606082015160038201556080820151600482018054939492939192909160ff191690838181111562000535576200053562000b3d565b0217905550506005546200055391506001600160a01b031662000564565b506200055e62000680565b62000bf5565b336000908152600960205260408120546001600160a01b0316156200058b57506001919050565b6040805160a0810182526001600160a01b0384811682528251600080825260208083018652808501928352855182815280820187528587015285518281528082018752606086015285518281528082018752608086015233825260098152949020835181546001600160a01b0319169316929092178255518051929391926200061b926001850192019062000a5a565b50604082015180516200063991600284019160209091019062000a5a565b50606082015180516200065791600384019160209091019062000a5a565b50608082015180516200067591600484019160209091019062000a5a565b506001949350505050565b6005546001600160a01b03163314620006e05760405162461bcd60e51b815260206004820152601560248201527f596f7520617265206e6f7420746865206f776e6572000000000000000000000060448201526064015b60405180910390fd5b60408051600580825260c082019092524291600091906020820160a08036833701905050905060005b600581101562000755576200072081600162000b69565b82828151811062000735576200073562000b84565b6020908102919091010152806200074c8162000b9a565b91505062000709565b5062000792670de0b6b3a76400006200077284620d2f0062000b69565b6040518060800160405280605c8152602001620043ab605c91396200084e565b50620007cf671bc16d674ec80000620007af84621a5e0062000b69565b6040518060800160405280605d81526020016200434e605d91396200084e565b506200080c6729a2241af62c0000620007ec8462278d0062000b69565b60405180608001604052806060815260200162004407606091396200084e565b5062000849673782dace9d9000006200082984624f1a0062000b69565b60405180608001604052806054815260200162004467605491396200084e565b505050565b3360008181526009602052604081205490916001600160a01b0390911614620008ba5760405162461bcd60e51b815260206004820152601660248201527f596f7520617265206e6f742072656769737465726564000000000000000000006044820152606401620006d7565b620008d1600362000a4d60201b620026bb1760201c565b6000620008ea600362000a5660201b620026c41760201c565b6040805160a0810182528281523360208083019182529282018981526060830189815260808401898152600c805460018101825560009190915285517fdf6966c971051c3d54ec59162606531493a51404a002842f56009d7e5cf4a8c7600590920291820190815594517fdf6966c971051c3d54ec59162606531493a51404a002842f56009d7e5cf4a8c8820180546001600160a01b0319166001600160a01b0390921691909117905592517fdf6966c971051c3d54ec59162606531493a51404a002842f56009d7e5cf4a8c984015590517fdf6966c971051c3d54ec59162606531493a51404a002842f56009d7e5cf4a8ca8301555180519596509294919362000a1d937fdf6966c971051c3d54ec59162606531493a51404a002842f56009d7e5cf4a8cb9092019291019062000aaa565b50503360009081526009602090815260408220600301805460018101825590835291200182905550949350505050565b80546001019055565b5490565b82805482825590600052602060002090810192821562000a98579160200282015b8281111562000a9857825182559160200191906001019062000a7b565b5062000aa692915062000b26565b5090565b82805462000ab89062000bb8565b90600052602060002090601f01602090048101928262000adc576000855562000a98565b82601f1062000af757805160ff191683800117855562000a98565b8280016001018555821562000a98579182018281111562000a9857825182559160200191906001019062000a7b565b5b8082111562000aa6576000815560010162000b27565b634e487b7160e01b600052602160045260246000fd5b634e487b7160e01b600052601160045260246000fd5b6000821982111562000b7f5762000b7f62000b53565b500190565b634e487b7160e01b600052603260045260246000fd5b600060001982141562000bb15762000bb162000b53565b5060010190565b600181811c9082168062000bcd57607f821691505b6020821081141562000bef57634e487b7160e01b600052602260045260246000fd5b50919050565b6137498062000c056000396000f3fe60806040526004361061012a5760003560e01c806389c808f8116100ab578063c95870b41161006f578063c95870b41461037e578063c98fb99314610393578063cc3d967b146103b3578063d271caa3146103e3578063e1c7392a14610403578063fdbda0ec1461041857600080fd5b806389c808f8146102a0578063a2a061f0146102c0578063a87430ba146102e0578063b02ab6fe1461032e578063b7c94c5f1461035d57600080fd5b80636804a958116100f25780636804a958146101ff57806376ea4db01461021457806383197ef0146102455780638392fe311461025a578063873138f31461028b57600080fd5b80631261e6ba1461012f5780631ae6f66b1461015a5780632199d5cd1461018757806333790845146101b75780633ccfd60b146101e8575b600080fd5b34801561013b57600080fd5b50610144610438565b6040516101519190612e6f565b60405180910390f35b34801561016657600080fd5b5061017a610175366004612e9d565b61055e565b6040516101519190612ff0565b34801561019357600080fd5b506101a76101a2366004613003565b610812565b6040519015158152602001610151565b3480156101c357600080fd5b506101d76101d236600461302c565b610925565b604051610151959493929190613045565b3480156101f457600080fd5b506101fd6109fc565b005b34801561020b57600080fd5b5061017a610a6b565b34801561022057600080fd5b5061023461022f36600461302c565b610c3c565b604051610151959493929190613078565b34801561025157600080fd5b506101fd610c98565b34801561026657600080fd5b5061027a61027536600461302c565b610cd0565b6040516101519594939291906130bc565b34801561029757600080fd5b506101a7610d1e565b3480156102ac57600080fd5b5061017a6102bb366004612e9d565b610d48565b3480156102cc57600080fd5b5061017a6102db3660046131c2565b610ff3565b3480156102ec57600080fd5b506103166102fb366004613003565b6009602052600090815260409020546001600160a01b031681565b6040516001600160a01b039091168152602001610151565b34801561033a57600080fd5b5061034e610349366004613210565b611470565b604051610151939291906132ad565b61037061036b3660046132e6565b611702565b604051908152602001610151565b34801561038a57600080fd5b5061017a611c7f565b34801561039f57600080fd5b506103706103ae36600461338b565b611e50565b3480156103bf57600080fd5b506103d36103ce366004613003565b61219c565b6040516101519493929190613410565b3480156103ef57600080fd5b506103706103fe36600461345d565b61237c565b34801561040f57600080fd5b506101fd612530565b34801561042457600080fd5b5061023461043336600461302c565b6126ab565b6060600c805480602002602001604051908101604052809291908181526020016000905b828210156105555760008481526020908190206040805160a081018252600586029092018054835260018101546001600160a01b031693830193909352600283015490820152600382015460608201526004820180549192916080840191906104c4906134ad565b80601f01602080910402602001604051908101604052809291908181526020018280546104f0906134ad565b801561053d5780601f106105125761010080835404028352916020019161053d565b820191906000526020600020905b81548152906001019060200180831161052057829003601f168201915b5050505050815250508152602001906001019061045c565b50505050905090565b600a5460609060009067ffffffffffffffff81111561057f5761057f6130f7565b6040519080825280602002602001820160405280156105b857816020015b6105a5612c3d565b81526020019060019003908161059d5790505b5090506000805b600a54811015610809578460038111156105db576105db612eb8565b600a82815481106105ee576105ee6134e8565b906000526020600020906004020160010160019054906101000a900460ff16600381111561061e5761061e612eb8565b14156107f757600a8181548110610637576106376134e8565b90600052602060002090600402016040518060c0016040529081600082015481526020016001820160009054906101000a900460ff16600181111561067e5761067e612eb8565b600181111561068f5761068f612eb8565b81526020016001820160019054906101000a900460ff1660038111156106b7576106b7612eb8565b60038111156106c8576106c8612eb8565b815260018201546201000090046001600160a01b0316602080830191909152600283018054604080518285028101850182528281529401939283018282801561073057602002820191906000526020600020905b81548152602001906001019080831161071c575b50505050508152602001600382018054610749906134ad565b80601f0160208091040260200160405190810160405280929190818152602001828054610775906134ad565b80156107c25780601f10610797576101008083540402835291602001916107c2565b820191906000526020600020905b8154815290600101906020018083116107a557829003601f168201915b5050505050815250508383815181106107dd576107dd6134e8565b602002602001018190525081806107f390613514565b9250505b8061080181613514565b9150506105bf565b50909392505050565b336000908152600960205260408120546001600160a01b03161561083857506001919050565b6040805160a0810182526001600160a01b0384811682528251600080825260208083018652808501928352855182815280820187528587015285518281528082018752606086015285518281528082018752608086015233825260098152949020835181546001600160a01b0319169316929092178255518051929391926108c69260018501920190612c72565b50604082015180516108e2916002840191602090910190612c72565b50606082015180516108fe916003840191602090910190612c72565b506080820151805161091a916004840191602090910190612c72565b506001949350505050565b600c818154811061093557600080fd5b6000918252602090912060059091020180546001820154600283015460038401546004850180549496506001600160a01b03909316949193909290610979906134ad565b80601f01602080910402602001604051908101604052809291908181526020018280546109a5906134ad565b80156109f25780601f106109c7576101008083540402835291602001916109f2565b820191906000526020600020905b8154815290600101906020018083116109d557829003601f168201915b5050505050905085565b6005546001600160a01b03163314610a2f5760405162461bcd60e51b8152600401610a269061352f565b60405180910390fd5b6005546040516001600160a01b03909116904780156108fc02916000818181858888f19350505050158015610a68573d6000803e3d6000fd5b50565b6060600a805480602002602001604051908101604052809291908181526020016000905b8282101561055557838290600052602060002090600402016040518060c0016040529081600082015481526020016001820160009054906101000a900460ff166001811115610ae057610ae0612eb8565b6001811115610af157610af1612eb8565b81526020016001820160019054906101000a900460ff166003811115610b1957610b19612eb8565b6003811115610b2a57610b2a612eb8565b815260018201546201000090046001600160a01b03166020808301919091526002830180546040805182850281018501825282815294019392830182828015610b9257602002820191906000526020600020905b815481526020019060010190808311610b7e575b50505050508152602001600382018054610bab906134ad565b80601f0160208091040260200160405190810160405280929190818152602001828054610bd7906134ad565b8015610c245780601f10610bf957610100808354040283529160200191610c24565b820191906000526020600020905b815481529060010190602001808311610c0757829003601f168201915b50505050508152505081526020019060010190610a8f565b600b8181548110610c4c57600080fd5b600091825260209091206004909102018054600182015460038301805492945060ff80831694610100840490911693620100009093046001600160a01b031692909190610979906134ad565b6005546001600160a01b03163314610cc25760405162461bcd60e51b8152600401610a269061352f565b6005546001600160a01b0316ff5b600d8181548110610ce057600080fd5b6000918252602090912060059091020180546001820154600283015460038401546004909401549294506001600160a01b0390911692909160ff1685565b336000908152600960205260408120546001600160a01b031615610d425750600190565b50600090565b600b5460609060009067ffffffffffffffff811115610d6957610d696130f7565b604051908082528060200260200182016040528015610da257816020015b610d8f612c3d565b815260200190600190039081610d875790505b5090506000805b600b5481101561080957846003811115610dc557610dc5612eb8565b600b8281548110610dd857610dd86134e8565b906000526020600020906004020160010160019054906101000a900460ff166003811115610e0857610e08612eb8565b1415610fe157600b8181548110610e2157610e216134e8565b90600052602060002090600402016040518060c0016040529081600082015481526020016001820160009054906101000a900460ff166001811115610e6857610e68612eb8565b6001811115610e7957610e79612eb8565b81526020016001820160019054906101000a900460ff166003811115610ea157610ea1612eb8565b6003811115610eb257610eb2612eb8565b815260018201546201000090046001600160a01b03166020808301919091526002830180546040805182850281018501825282815294019392830182828015610f1a57602002820191906000526020600020905b815481526020019060010190808311610f06575b50505050508152602001600382018054610f33906134ad565b80601f0160208091040260200160405190810160405280929190818152602001828054610f5f906134ad565b8015610fac5780601f10610f8157610100808354040283529160200191610fac565b820191906000526020600020905b815481529060010190602001808311610f8f57829003601f168201915b505050505081525050838381518110610fc757610fc76134e8565b60200260200101819052508180610fdd90613514565b9250505b80610feb81613514565b915050610da9565b60606000835167ffffffffffffffff811115611011576110116130f7565b60405190808252806020026020018201604052801561104a57816020015b611037612c3d565b81526020019060019003908161102f5790505b509050600083600181111561106157611061612eb8565b14156112695760005b845181101561126357600b858281518110611087576110876134e8565b60200260200101518154811061109f5761109f6134e8565b90600052602060002090600402016040518060c0016040529081600082015481526020016001820160009054906101000a900460ff1660018111156110e6576110e6612eb8565b60018111156110f7576110f7612eb8565b81526020016001820160019054906101000a900460ff16600381111561111f5761111f612eb8565b600381111561113057611130612eb8565b815260018201546201000090046001600160a01b0316602080830191909152600283018054604080518285028101850182528281529401939283018282801561119857602002820191906000526020600020905b815481526020019060010190808311611184575b505050505081526020016003820180546111b1906134ad565b80601f01602080910402602001604051908101604052809291908181526020018280546111dd906134ad565b801561122a5780601f106111ff5761010080835404028352916020019161122a565b820191906000526020600020905b81548152906001019060200180831161120d57829003601f168201915b505050505081525050828281518110611245576112456134e8565b6020026020010181905250808061125b90613514565b91505061106a565b50611467565b60005b845181101561146557600a858281518110611289576112896134e8565b6020026020010151815481106112a1576112a16134e8565b90600052602060002090600402016040518060c0016040529081600082015481526020016001820160009054906101000a900460ff1660018111156112e8576112e8612eb8565b60018111156112f9576112f9612eb8565b81526020016001820160019054906101000a900460ff16600381111561132157611321612eb8565b600381111561133257611332612eb8565b815260018201546201000090046001600160a01b0316602080830191909152600283018054604080518285028101850182528281529401939283018282801561139a57602002820191906000526020600020905b815481526020019060010190808311611386575b505050505081526020016003820180546113b3906134ad565b80601f01602080910402602001604051908101604052809291908181526020018280546113df906134ad565b801561142c5780601f106114015761010080835404028352916020019161142c565b820191906000526020600020905b81548152906001019060200180831161140f57829003601f168201915b505050505081525050828281518110611447576114476134e8565b6020026020010181905250808061145d90613514565b91505061126c565b505b90505b92915050565b611478612c3d565b606080600084600181111561148f5761148f612eb8565b14156116c457600b85815481106114a8576114a86134e8565b9060005260206000209060040201611531600b87815481106114cc576114cc6134e8565b906000526020600020906004020160020180548060200260200160405190810160405280929190818152602001828054801561152757602002820191906000526020600020905b815481526020019060010190808311611513575b50505050506126c8565b61153b87876128bc565b6040805160c08101909152835481526001808501548591602084019160ff169081111561156a5761156a612eb8565b600181111561157b5761157b612eb8565b81526020016001820160019054906101000a900460ff1660038111156115a3576115a3612eb8565b60038111156115b4576115b4612eb8565b815260018201546201000090046001600160a01b0316602080830191909152600283018054604080518285028101850182528281529401939283018282801561161c57602002820191906000526020600020905b815481526020019060010190808311611608575b50505050508152602001600382018054611635906134ad565b80601f0160208091040260200160405190810160405280929190818152602001828054611661906134ad565b80156116ae5780601f10611683576101008083540402835291602001916116ae565b820191906000526020600020905b81548152906001019060200180831161169157829003601f168201915b50505050508152505092509250925092506116fb565b600a85815481106116d7576116d76134e8565b9060005260206000209060040201611531600a87815481106114cc576114cc6134e8565b9250925092565b3360008181526009602052604081205490916001600160a01b039091161461173c5760405162461bcd60e51b8152600401610a269061355e565b60006001600160a01b0316600c858154811061175a5761175a6134e8565b60009182526020909120600160059092020101546001600160a01b031614156117be5760405162461bcd60e51b8152602060048201526016602482015275131a58d95b9cd948191bd95cc81b9bdd08195e1a5cdd60521b6044820152606401610a26565b336001600160a01b0316600c85815481106117db576117db6134e8565b60009182526020909120600160059092020101546001600160a01b031614156118465760405162461bcd60e51b815260206004820181905260248201527f596f752061726520746865206f776e6572206f6620746865206c6963656e73656044820152606401610a26565b600082600181111561185a5761185a612eb8565b14156119df5760006001600160a01b0316600b848154811061187e5761187e6134e8565b60009182526020909120600490910201600101546201000090046001600160a01b031614156118e75760405162461bcd60e51b8152602060048201526015602482015274105d1bdb5a58c8191bd95cc81b9bdd08195e1a5cdd605a1b6044820152606401610a26565b336001600160a01b0316600b8481548110611904576119046134e8565b60009182526020909120600490910201600101546201000090046001600160a01b031614156119755760405162461bcd60e51b815260206004820152601f60248201527f596f752061726520746865206f776e6572206f66207468652041746f6d6963006044820152606401610a26565b600b8381548110611988576119886134e8565b600091825260208220600160049092020101546040516001600160a01b036201000090920491909116913480156108fc02929091818181858888f193505050501580156119d9573d6000803e3d6000fd5b50611b6e565b60006001600160a01b0316600a84815481106119fd576119fd6134e8565b60009182526020909120600490910201600101546201000090046001600160a01b03161415611a6e5760405162461bcd60e51b815260206004820152601960248201527f436f6c6c656374696f6e20646f6573206e6f74206578697374000000000000006044820152606401610a26565b336001600160a01b0316600a8481548110611a8b57611a8b6134e8565b60009182526020909120600490910201600101546201000090046001600160a01b03161415611b085760405162461bcd60e51b815260206004820152602360248201527f596f752061726520746865206f776e6572206f662074686520436f6c6c65637460448201526234b7b760e91b6064820152608401610a26565b600a8381548110611b1b57611b1b6134e8565b600091825260208220600160049092020101546040516001600160a01b036201000090920491909116913480156108fc02929091818181858888f19350505050158015611b6c573d6000803e3d6000fd5b505b611b7c600480546001019055565b6000611b8760045490565b9050600d6040518060a00160405280838152602001336001600160a01b03168152602001878152602001868152602001856001811115611bc957611bc9612eb8565b9052815460018082018455600093845260209384902083516005909302019182559282015181840180546001600160a01b0319166001600160a01b0390921691909117905560408201516002820155606082015160038201556080820151600482018054939492939192909160ff1916908381811115611c4b57611c4b612eb8565b0217905550503360009081526009602090815260408220600401805460018101825590835291200182905550949350505050565b6060600b805480602002602001604051908101604052809291908181526020016000905b8282101561055557838290600052602060002090600402016040518060c0016040529081600082015481526020016001820160009054906101000a900460ff166001811115611cf457611cf4612eb8565b6001811115611d0557611d05612eb8565b81526020016001820160019054906101000a900460ff166003811115611d2d57611d2d612eb8565b6003811115611d3e57611d3e612eb8565b815260018201546201000090046001600160a01b03166020808301919091526002830180546040805182850281018501825282815294019392830182828015611da657602002820191906000526020600020905b815481526020019060010190808311611d92575b50505050508152602001600382018054611dbf906134ad565b80601f0160208091040260200160405190810160405280929190818152602001828054611deb906134ad565b8015611e385780601f10611e0d57610100808354040283529160200191611e38565b820191906000526020600020905b815481529060010190602001808311611e1b57829003601f168201915b50505050508152505081526020019060010190611ca3565b3360008181526009602052604081205490916001600160a01b0390911614611e8a5760405162461bcd60e51b8152600401610a269061355e565b6000856001811115611e9e57611e9e612eb8565b141561201e57611eb2600180546001019055565b6000611ebd60015490565b9050600b6040518060c00160405280838152602001886001811115611ee457611ee4612eb8565b8152602001876003811115611efb57611efb612eb8565b8152336020808301919091526040820188905260609091018690528254600181810185556000948552938290208351600490920201908155908201518184018054939492939192909160ff1916908381811115611f5a57611f5a612eb8565b0217905550604082015160018201805461ff001916610100836003811115611f8457611f84612eb8565b021790555060608201516001820180546001600160a01b03909216620100000262010000600160b01b031990921691909117905560808201518051611fd3916002840191602090910190612c72565b5060a08201518051611fef916003840191602090910190612cbd565b505033600090815260096020908152604082206002018054600181018255908352912001829055509050612194565b61202c600280546001019055565b600061203760025490565b9050600a6040518060c0016040528083815260200188600181111561205e5761205e612eb8565b815260200187600381111561207557612075612eb8565b8152336020808301919091526040820188905260609091018690528254600181810185556000948552938290208351600490920201908155908201518184018054939492939192909160ff19169083818111156120d4576120d4612eb8565b0217905550604082015160018201805461ff0019166101008360038111156120fe576120fe612eb8565b021790555060608201516001820180546001600160a01b03909216620100000262010000600160b01b03199092169190911790556080820151805161214d916002840191602090910190612c72565b5060a08201518051612169916003840191602090910190612cbd565b5050336000908152600960209081526040822060019081018054918201815583529120018290555090505b949350505050565b60608060608061222360096000876001600160a01b03166001600160a01b0316815260200190815260200160002060020180548060200260200160405190810160405280929190818152602001828054801561221757602002820191906000526020600020905b815481526020019060010190808311612203575b50505050506000612aa3565b6001600160a01b0386166000908152600960209081526040918290206001018054835181840281018401909452808452612293939283018282801561228757602002820191906000526020600020905b815481526020019060010190808311612273575b50505050506001612aa3565b6001600160a01b03871660009081526009602090815260409182902060030180548351818402810184019094528084526122ff939283018282801561152757602002820191906000526020600020908154815260200190600101908083116115135750505050506126c8565b6001600160a01b038816600090815260096020908152604091829020600401805483518184028101840190945280845261236d939283018282801561236357602002820191906000526020600020905b81548152602001906001019080831161234f575b5050505050612adc565b93509350935093509193509193565b3360008181526009602052604081205490916001600160a01b03909116146123b65760405162461bcd60e51b8152600401610a269061355e565b6123c4600380546001019055565b60006123cf60035490565b6040805160a0810182528281523360208083019182529282018981526060830189815260808401898152600c805460018101825560009190915285517fdf6966c971051c3d54ec59162606531493a51404a002842f56009d7e5cf4a8c7600590920291820190815594517fdf6966c971051c3d54ec59162606531493a51404a002842f56009d7e5cf4a8c8820180546001600160a01b0319166001600160a01b0390921691909117905592517fdf6966c971051c3d54ec59162606531493a51404a002842f56009d7e5cf4a8c984015590517fdf6966c971051c3d54ec59162606531493a51404a002842f56009d7e5cf4a8ca83015551805195965092949193612500937fdf6966c971051c3d54ec59162606531493a51404a002842f56009d7e5cf4a8cb90920192910190612cbd565b50503360009081526009602090815260408220600301805460018101825590835291200182905550949350505050565b6005546001600160a01b0316331461255a5760405162461bcd60e51b8152600401610a269061352f565b60408051600580825260c082019092524291600091906020820160a08036833701905050905060005b60058110156125c65761259781600161358e565b8282815181106125a9576125a96134e8565b6020908102919091010152806125be81613514565b915050612583565b506125fe670de0b6b3a76400006125e084620d2f0061358e565b6040518060800160405280605c8152602001613604605c913961237c565b50612636671bc16d674ec8000061261884621a5e0061358e565b6040518060800160405280605d81526020016135a7605d913961237c565b5061266e6729a2241af62c00006126508462278d0061358e565b6040518060800160405280606081526020016136606060913961237c565b506126a6673782dace9d90000061268884624f1a0061358e565b6040518060800160405280605481526020016136c06054913961237c565b505050565b600a8181548110610c4c57600080fd5b80546001019055565b5490565b60606000825167ffffffffffffffff8111156126e6576126e66130f7565b60405190808252806020026020018201604052801561275257816020015b61273f6040518060a001604052806000815260200160006001600160a01b031681526020016000815260200160008152602001606081525090565b8152602001906001900390816127045790505b50905060005b83518110156128b557600c848281518110612775576127756134e8565b60200260200101518154811061278d5761278d6134e8565b90600052602060002090600502016040518060a0016040529081600082015481526020016001820160009054906101000a90046001600160a01b03166001600160a01b03166001600160a01b031681526020016002820154815260200160038201548152602001600482018054612803906134ad565b80601f016020809104026020016040519081016040528092919081815260200182805461282f906134ad565b801561287c5780601f106128515761010080835404028352916020019161287c565b820191906000526020600020905b81548152906001019060200180831161285f57829003601f168201915b505050505081525050828281518110612897576128976134e8565b602002602001018190525080806128ad90613514565b915050612758565b5092915050565b600d5460609060009067ffffffffffffffff8111156128dd576128dd6130f7565b60405190808252806020026020018201604052801561291657816020015b612903612d30565b8152602001906001900390816128fb5790505b5090506000805b600d54811015612a995785600d828154811061293b5761293b6134e8565b9060005260206000209060050201600301541480156129a4575084600181111561296757612967612eb8565b600d828154811061297a5761297a6134e8565b600091825260209091206004600590920201015460ff1660018111156129a2576129a2612eb8565b145b15612a8757600d81815481106129bc576129bc6134e8565b90600052602060002090600502016040518060a0016040529081600082015481526020016001820160009054906101000a90046001600160a01b03166001600160a01b03166001600160a01b0316815260200160028201548152602001600382015481526020016004820160009054906101000a900460ff166001811115612a4657612a46612eb8565b6001811115612a5757612a57612eb8565b81525050838381518110612a6d57612a6d6134e8565b60200260200101819052508180612a8390613514565b9250505b80612a9181613514565b91505061291d565b5090949350505050565b60606000826001811115612ab957612ab9612eb8565b1415612ad157612aca836000610ff3565b905061146a565b612aca836001610ff3565b60606000825167ffffffffffffffff811115612afa57612afa6130f7565b604051908082528060200260200182016040528015612b3357816020015b612b20612d30565b815260200190600190039081612b185790505b50905060005b83518110156128b557600d848281518110612b5657612b566134e8565b602002602001015181548110612b6e57612b6e6134e8565b90600052602060002090600502016040518060a0016040529081600082015481526020016001820160009054906101000a90046001600160a01b03166001600160a01b03166001600160a01b0316815260200160028201548152602001600382015481526020016004820160009054906101000a900460ff166001811115612bf857612bf8612eb8565b6001811115612c0957612c09612eb8565b81525050828281518110612c1f57612c1f6134e8565b60200260200101819052508080612c3590613514565b915050612b39565b6040805160c0810190915260008082526020820190815260200160008152600060208201526060604082018190529081015290565b828054828255906000526020600020908101928215612cad579160200282015b82811115612cad578251825591602001919060010190612c92565b50612cb9929150612d78565b5090565b828054612cc9906134ad565b90600052602060002090601f016020900481019282612ceb5760008555612cad565b82601f10612d0457805160ff1916838001178555612cad565b82800160010185558215612cad5791820182811115612cad578251825591602001919060010190612c92565b6040518060a001604052806000815260200160006001600160a01b03168152602001600081526020016000815260200160006001811115612d7357612d73612eb8565b905290565b5b80821115612cb95760008155600101612d79565b6000815180845260005b81811015612db357602081850181015186830182015201612d97565b81811115612dc5576000602083870101525b50601f01601f19169290920160200192915050565b600082825180855260208086019550808260051b84010181860160005b84811015612e6257858303601f19018952815180518452848101516001600160a01b031685850152604080820151908501526060808201519085015260809081015160a091850182905290612e4e81860183612d8d565b9a86019a9450505090830190600101612df7565b5090979650505050505050565b602081526000612e826020830184612dda565b9392505050565b803560048110612e9857600080fd5b919050565b600060208284031215612eaf57600080fd5b612e8282612e89565b634e487b7160e01b600052602160045260246000fd5b60028110612ede57612ede612eb8565b9052565b60048110612ede57612ede612eb8565b600060c0830182518452602080840151612f0e82870182612ece565b506040840151612f216040870182612ee2565b506060848101516001600160a01b03169086015260808085015160c09187019190915280519283905281019160009060e08701905b80831015612f765784518252938301936001929092019190830190612f56565b5060a0860151935086810360a0880152612f908185612d8d565b979650505050505050565b600081518084526020808501808196508360051b8101915082860160005b85811015612fe3578284038952612fd1848351612ef2565b98850198935090840190600101612fb9565b5091979650505050505050565b602081526000612e826020830184612f9b565b60006020828403121561301557600080fd5b81356001600160a01b038116811461146757600080fd5b60006020828403121561303e57600080fd5b5035919050565b85815260018060a01b038516602082015283604082015282606082015260a060808201526000612f9060a0830184612d8d565b8581526130886020820186612ece565b6130956040820185612ee2565b6001600160a01b038316606082015260a060808201819052600090612f9090830184612d8d565b8581526001600160a01b0385166020820152604081018490526060810183905260a081016130ed6080830184612ece565b9695505050505050565b634e487b7160e01b600052604160045260246000fd5b604051601f8201601f1916810167ffffffffffffffff81118282101715613136576131366130f7565b604052919050565b600082601f83011261314f57600080fd5b8135602067ffffffffffffffff82111561316b5761316b6130f7565b8160051b61317a82820161310d565b928352848101820192828101908785111561319457600080fd5b83870192505b84831015612f905782358252918301919083019061319a565b803560028110612e9857600080fd5b600080604083850312156131d557600080fd5b823567ffffffffffffffff8111156131ec57600080fd5b6131f88582860161313e565b925050613207602084016131b3565b90509250929050565b6000806040838503121561322357600080fd5b82359150613207602084016131b3565b600081518084526020808501945080840160005b838110156132a257815180518852838101516001600160a01b03168489015260408082015190890152606080820151908901526080908101519061328d818a0183612ece565b505060a0969096019590820190600101613247565b509495945050505050565b6060815260006132c06060830186612ef2565b82810360208401526132d28186612dda565b905082810360408401526130ed8185613233565b6000806000606084860312156132fb57600080fd5b8335925060208401359150613312604085016131b3565b90509250925092565b600082601f83011261332c57600080fd5b813567ffffffffffffffff811115613346576133466130f7565b613359601f8201601f191660200161310d565b81815284602083860101111561336e57600080fd5b816020850160208301376000918101602001919091529392505050565b600080600080608085870312156133a157600080fd5b6133aa856131b3565b93506133b860208601612e89565b9250604085013567ffffffffffffffff808211156133d557600080fd5b6133e18883890161313e565b935060608701359150808211156133f757600080fd5b506134048782880161331b565b91505092959194509250565b6080815260006134236080830187612f9b565b82810360208401526134358187612f9b565b905082810360408401526134498186612dda565b90508281036060840152612f908185613233565b60008060006060848603121561347257600080fd5b8335925060208401359150604084013567ffffffffffffffff81111561349757600080fd5b6134a38682870161331b565b9150509250925092565b600181811c908216806134c157607f821691505b602082108114156134e257634e487b7160e01b600052602260045260246000fd5b50919050565b634e487b7160e01b600052603260045260246000fd5b634e487b7160e01b600052601160045260246000fd5b6000600019821415613528576135286134fe565b5060010190565b6020808252601590820152742cb7ba9030b932903737ba103a34329037bbb732b960591b604082015260600190565b602080825260169082015275165bdd48185c99481b9bdd081c9959da5cdd195c995960521b604082015260600190565b600082198211156135a1576135a16134fe565b50019056fe7b226e616d65223a225072656d696e756d204c6963656e6365222c226465736372697074696f6e223a22204c6963656e73652077697468205072656d69756d205065726b7320222c226c6963656e636554797065223a2250616964227d7b226e616d65223a225374616e64617264204c6963656e7365222c226465736372697074696f6e223a224c6963656e63652077697468207374616e64617264207065726b73222c226c6963656e636554797065223a2250616964227d7b226e616d65223a224578636c7573697665204c6963656e6365222c226465736372697074696f6e223a22204c6963656e73652077697468204578636c7573697665205065726b7320222c226c6963656e636554797065223a2250616964227d7b226e616d65223a22564950204c6963656e6365222c226465736372697074696f6e223a22204c6963656e7365207769746820564950205065726b7320222c226c6963656e636554797065223a2250616964227da2646970667358221220c34354faebcd5e347ebc2038cfb3d783f249b51af355451bd854a81f9292d3ad64736f6c634300080900337b226e616d65223a225072656d696e756d204c6963656e6365222c226465736372697074696f6e223a22204c6963656e73652077697468205072656d69756d205065726b7320222c226c6963656e636554797065223a2250616964227d7b226e616d65223a225374616e64617264204c6963656e7365222c226465736372697074696f6e223a224c6963656e63652077697468207374616e64617264207065726b73222c226c6963656e636554797065223a2250616964227d7b226e616d65223a224578636c7573697665204c6963656e6365222c226465736372697074696f6e223a22204c6963656e73652077697468204578636c7573697665205065726b7320222c226c6963656e636554797065223a2250616964227d7b226e616d65223a22564950204c6963656e6365222c226465736372697074696f6e223a22204c6963656e7365207769746820564950205065726b7320222c226c6963656e636554797065223a2250616964227d",
  "linkReferences": {},
  "deployedLinkReferences": {}
}