{
  "_format": "hh-sol-artifact-1",
  "contractName": "Depictorial",
  "sourceName": "contracts/Depictorial.sol",
  "abi": [
    {
      "inputs": [],
      "stateMutability": "nonpayable",
      "type": "constructor"
    },
    {
      "inputs": [
        {
          "internalType": "uint256",
          "name": "",
          "type": "uint256"
        }
      ],
      "name": "atomics",
      "outputs": [
        {
          "internalType": "uint256",
          "name": "Id",
          "type": "uint256"
        },
        {
          "internalType": "enum Depictorial.Type",
          "name": "AssetType",
          "type": "uint8"
        },
        {
          "internalType": "enum Depictorial.DeItemType",
          "name": "ItemType",
          "type": "uint8"
        },
        {
          "internalType": "address payable",
          "name": "Owner",
          "type": "address"
        },
        {
          "internalType": "string",
          "name": "metaData",
          "type": "string"
        }
      ],
      "stateMutability": "view",
      "type": "function"
    },
    {
      "inputs": [
        {
          "internalType": "uint256",
          "name": "_licenseId",
          "type": "uint256"
        },
        {
          "internalType": "uint256",
          "name": "_deItemId",
          "type": "uint256"
        },
        {
          "internalType": "enum Depictorial.Type",
          "name": "_assetType",
          "type": "uint8"
        }
      ],
      "name": "buyDeItem",
      "outputs": [
        {
          "internalType": "uint256",
          "name": "",
          "type": "uint256"
        }
      ],
      "stateMutability": "payable",
      "type": "function"
    },
    {
      "inputs": [
        {
          "internalType": "uint256",
          "name": "",
          "type": "uint256"
        }
      ],
      "name": "collections",
      "outputs": [
        {
          "internalType": "uint256",
          "name": "Id",
          "type": "uint256"
        },
        {
          "internalType": "enum Depictorial.Type",
          "name": "AssetType",
          "type": "uint8"
        },
        {
          "internalType": "enum Depictorial.DeItemType",
          "name": "ItemType",
          "type": "uint8"
        },
        {
          "internalType": "address payable",
          "name": "Owner",
          "type": "address"
        },
        {
          "internalType": "string",
          "name": "metaData",
          "type": "string"
        }
      ],
      "stateMutability": "view",
      "type": "function"
    },
    {
      "inputs": [
        {
          "internalType": "enum Depictorial.Type",
          "name": "_assetType",
          "type": "uint8"
        },
        {
          "internalType": "enum Depictorial.DeItemType",
          "name": "_itemType",
          "type": "uint8"
        },
        {
          "internalType": "uint256[]",
          "name": "_licenseIds",
          "type": "uint256[]"
        },
        {
          "internalType": "string",
          "name": "_metaData",
          "type": "string"
        }
      ],
      "name": "createDeItem",
      "outputs": [
        {
          "internalType": "uint256",
          "name": "",
          "type": "uint256"
        }
      ],
      "stateMutability": "nonpayable",
      "type": "function"
    },
    {
      "inputs": [
        {
          "internalType": "uint256",
          "name": "_price",
          "type": "uint256"
        },
        {
          "internalType": "uint256",
          "name": "_duration",
          "type": "uint256"
        }
      ],
      "name": "createLicense",
      "outputs": [
        {
          "internalType": "uint256",
          "name": "",
          "type": "uint256"
        }
      ],
      "stateMutability": "nonpayable",
      "type": "function"
    },
    {
      "inputs": [],
      "name": "destroy",
      "outputs": [],
      "stateMutability": "nonpayable",
      "type": "function"
    },
    {
      "inputs": [],
      "name": "getAllAtomics",
      "outputs": [
        {
          "components": [
            {
              "internalType": "uint256",
              "name": "Id",
              "type": "uint256"
            },
            {
              "internalType": "enum Depictorial.Type",
              "name": "AssetType",
              "type": "uint8"
            },
            {
              "internalType": "enum Depictorial.DeItemType",
              "name": "ItemType",
              "type": "uint8"
            },
            {
              "internalType": "address payable",
              "name": "Owner",
              "type": "address"
            },
            {
              "internalType": "uint256[]",
              "name": "licenseIds",
              "type": "uint256[]"
            },
            {
              "internalType": "string",
              "name": "metaData",
              "type": "string"
            }
          ],
          "internalType": "struct Depictorial.DeItem[]",
          "name": "",
          "type": "tuple[]"
        }
      ],
      "stateMutability": "view",
      "type": "function"
    },
    {
      "inputs": [
        {
          "internalType": "enum Depictorial.DeItemType",
          "name": "_itemType",
          "type": "uint8"
        }
      ],
      "name": "getAllAtomicsByItemType",
      "outputs": [
        {
          "components": [
            {
              "internalType": "uint256",
              "name": "Id",
              "type": "uint256"
            },
            {
              "internalType": "enum Depictorial.Type",
              "name": "AssetType",
              "type": "uint8"
            },
            {
              "internalType": "enum Depictorial.DeItemType",
              "name": "ItemType",
              "type": "uint8"
            },
            {
              "internalType": "address payable",
              "name": "Owner",
              "type": "address"
            },
            {
              "internalType": "uint256[]",
              "name": "licenseIds",
              "type": "uint256[]"
            },
            {
              "internalType": "string",
              "name": "metaData",
              "type": "string"
            }
          ],
          "internalType": "struct Depictorial.DeItem[]",
          "name": "",
          "type": "tuple[]"
        }
      ],
      "stateMutability": "view",
      "type": "function"
    },
    {
      "inputs": [],
      "name": "getAllCollections",
      "outputs": [
        {
          "components": [
            {
              "internalType": "uint256",
              "name": "Id",
              "type": "uint256"
            },
            {
              "internalType": "enum Depictorial.Type",
              "name": "AssetType",
              "type": "uint8"
            },
            {
              "internalType": "enum Depictorial.DeItemType",
              "name": "ItemType",
              "type": "uint8"
            },
            {
              "internalType": "address payable",
              "name": "Owner",
              "type": "address"
            },
            {
              "internalType": "uint256[]",
              "name": "licenseIds",
              "type": "uint256[]"
            },
            {
              "internalType": "string",
              "name": "metaData",
              "type": "string"
            }
          ],
          "internalType": "struct Depictorial.DeItem[]",
          "name": "",
          "type": "tuple[]"
        }
      ],
      "stateMutability": "view",
      "type": "function"
    },
    {
      "inputs": [
        {
          "internalType": "enum Depictorial.DeItemType",
          "name": "_itemType",
          "type": "uint8"
        }
      ],
      "name": "getAllCollectionsByItemType",
      "outputs": [
        {
          "components": [
            {
              "internalType": "uint256",
              "name": "Id",
              "type": "uint256"
            },
            {
              "internalType": "enum Depictorial.Type",
              "name": "AssetType",
              "type": "uint8"
            },
            {
              "internalType": "enum Depictorial.DeItemType",
              "name": "ItemType",
              "type": "uint8"
            },
            {
              "internalType": "address payable",
              "name": "Owner",
              "type": "address"
            },
            {
              "internalType": "uint256[]",
              "name": "licenseIds",
              "type": "uint256[]"
            },
            {
              "internalType": "string",
              "name": "metaData",
              "type": "string"
            }
          ],
          "internalType": "struct Depictorial.DeItem[]",
          "name": "",
          "type": "tuple[]"
        }
      ],
      "stateMutability": "view",
      "type": "function"
    },
    {
      "inputs": [],
      "name": "getAllLicenses",
      "outputs": [
        {
          "components": [
            {
              "internalType": "uint256",
              "name": "Id",
              "type": "uint256"
            },
            {
              "internalType": "address payable",
              "name": "Owner",
              "type": "address"
            },
            {
              "internalType": "uint256",
              "name": "Price",
              "type": "uint256"
            },
            {
              "internalType": "uint256",
              "name": "Duration",
              "type": "uint256"
            }
          ],
          "internalType": "struct Depictorial.Licecnse[]",
          "name": "",
          "type": "tuple[]"
        }
      ],
      "stateMutability": "view",
      "type": "function"
    },
    {
      "inputs": [
        {
          "internalType": "uint256",
          "name": "_deItemId",
          "type": "uint256"
        },
        {
          "internalType": "enum Depictorial.Type",
          "name": "_assetType",
          "type": "uint8"
        }
      ],
      "name": "getDeItemById",
      "outputs": [
        {
          "components": [
            {
              "internalType": "uint256",
              "name": "Id",
              "type": "uint256"
            },
            {
              "internalType": "enum Depictorial.Type",
              "name": "AssetType",
              "type": "uint8"
            },
            {
              "internalType": "enum Depictorial.DeItemType",
              "name": "ItemType",
              "type": "uint8"
            },
            {
              "internalType": "address payable",
              "name": "Owner",
              "type": "address"
            },
            {
              "internalType": "uint256[]",
              "name": "licenseIds",
              "type": "uint256[]"
            },
            {
              "internalType": "string",
              "name": "metaData",
              "type": "string"
            }
          ],
          "internalType": "struct Depictorial.DeItem",
          "name": "deItemDetails",
          "type": "tuple"
        },
        {
          "components": [
            {
              "internalType": "uint256",
              "name": "Id",
              "type": "uint256"
            },
            {
              "internalType": "address payable",
              "name": "Owner",
              "type": "address"
            },
            {
              "internalType": "uint256",
              "name": "Price",
              "type": "uint256"
            },
            {
              "internalType": "uint256",
              "name": "Duration",
              "type": "uint256"
            }
          ],
          "internalType": "struct Depictorial.Licecnse[]",
          "name": "licenseDetails",
          "type": "tuple[]"
        },
        {
          "components": [
            {
              "internalType": "uint256",
              "name": "Id",
              "type": "uint256"
            },
            {
              "internalType": "address payable",
              "name": "Buyer",
              "type": "address"
            },
            {
              "internalType": "uint256",
              "name": "licenseId",
              "type": "uint256"
            },
            {
              "internalType": "uint256",
              "name": "DeItemId",
              "type": "uint256"
            },
            {
              "internalType": "enum Depictorial.Type",
              "name": "AssetType",
              "type": "uint8"
            }
          ],
          "internalType": "struct Depictorial.Purchase[]",
          "name": "purchaseDetails",
          "type": "tuple[]"
        }
      ],
      "stateMutability": "view",
      "type": "function"
    },
    {
      "inputs": [
        {
          "internalType": "uint256[]",
          "name": "_deItemIds",
          "type": "uint256[]"
        },
        {
          "internalType": "enum Depictorial.Type",
          "name": "_assetType",
          "type": "uint8"
        }
      ],
      "name": "getDeItemsByType",
      "outputs": [
        {
          "components": [
            {
              "internalType": "uint256",
              "name": "Id",
              "type": "uint256"
            },
            {
              "internalType": "enum Depictorial.Type",
              "name": "AssetType",
              "type": "uint8"
            },
            {
              "internalType": "enum Depictorial.DeItemType",
              "name": "ItemType",
              "type": "uint8"
            },
            {
              "internalType": "address payable",
              "name": "Owner",
              "type": "address"
            },
            {
              "internalType": "uint256[]",
              "name": "licenseIds",
              "type": "uint256[]"
            },
            {
              "internalType": "string",
              "name": "metaData",
              "type": "string"
            }
          ],
          "internalType": "struct Depictorial.DeItem[]",
          "name": "DeItems",
          "type": "tuple[]"
        }
      ],
      "stateMutability": "view",
      "type": "function"
    },
    {
      "inputs": [
        {
          "internalType": "address",
          "name": "_addr",
          "type": "address"
        }
      ],
      "name": "getUserDetails",
      "outputs": [
        {
          "components": [
            {
              "internalType": "uint256",
              "name": "Id",
              "type": "uint256"
            },
            {
              "internalType": "enum Depictorial.Type",
              "name": "AssetType",
              "type": "uint8"
            },
            {
              "internalType": "enum Depictorial.DeItemType",
              "name": "ItemType",
              "type": "uint8"
            },
            {
              "internalType": "address payable",
              "name": "Owner",
              "type": "address"
            },
            {
              "internalType": "uint256[]",
              "name": "licenseIds",
              "type": "uint256[]"
            },
            {
              "internalType": "string",
              "name": "metaData",
              "type": "string"
            }
          ],
          "internalType": "struct Depictorial.DeItem[]",
          "name": "atomicDetails",
          "type": "tuple[]"
        },
        {
          "components": [
            {
              "internalType": "uint256",
              "name": "Id",
              "type": "uint256"
            },
            {
              "internalType": "enum Depictorial.Type",
              "name": "AssetType",
              "type": "uint8"
            },
            {
              "internalType": "enum Depictorial.DeItemType",
              "name": "ItemType",
              "type": "uint8"
            },
            {
              "internalType": "address payable",
              "name": "Owner",
              "type": "address"
            },
            {
              "internalType": "uint256[]",
              "name": "licenseIds",
              "type": "uint256[]"
            },
            {
              "internalType": "string",
              "name": "metaData",
              "type": "string"
            }
          ],
          "internalType": "struct Depictorial.DeItem[]",
          "name": "collectionDetails",
          "type": "tuple[]"
        },
        {
          "components": [
            {
              "internalType": "uint256",
              "name": "Id",
              "type": "uint256"
            },
            {
              "internalType": "address payable",
              "name": "Owner",
              "type": "address"
            },
            {
              "internalType": "uint256",
              "name": "Price",
              "type": "uint256"
            },
            {
              "internalType": "uint256",
              "name": "Duration",
              "type": "uint256"
            }
          ],
          "internalType": "struct Depictorial.Licecnse[]",
          "name": "licenseDetails",
          "type": "tuple[]"
        },
        {
          "components": [
            {
              "internalType": "uint256",
              "name": "Id",
              "type": "uint256"
            },
            {
              "internalType": "address payable",
              "name": "Buyer",
              "type": "address"
            },
            {
              "internalType": "uint256",
              "name": "licenseId",
              "type": "uint256"
            },
            {
              "internalType": "uint256",
              "name": "DeItemId",
              "type": "uint256"
            },
            {
              "internalType": "enum Depictorial.Type",
              "name": "AssetType",
              "type": "uint8"
            }
          ],
          "internalType": "struct Depictorial.Purchase[]",
          "name": "purchaseDetails",
          "type": "tuple[]"
        }
      ],
      "stateMutability": "view",
      "type": "function"
    },
    {
      "inputs": [],
      "name": "init",
      "outputs": [],
      "stateMutability": "nonpayable",
      "type": "function"
    },
    {
      "inputs": [],
      "name": "isUserRegistered",
      "outputs": [
        {
          "internalType": "bool",
          "name": "",
          "type": "bool"
        }
      ],
      "stateMutability": "view",
      "type": "function"
    },
    {
      "inputs": [
        {
          "internalType": "uint256",
          "name": "",
          "type": "uint256"
        }
      ],
      "name": "licenses",
      "outputs": [
        {
          "internalType": "uint256",
          "name": "Id",
          "type": "uint256"
        },
        {
          "internalType": "address payable",
          "name": "Owner",
          "type": "address"
        },
        {
          "internalType": "uint256",
          "name": "Price",
          "type": "uint256"
        },
        {
          "internalType": "uint256",
          "name": "Duration",
          "type": "uint256"
        }
      ],
      "stateMutability": "view",
      "type": "function"
    },
    {
      "inputs": [
        {
          "internalType": "uint256",
          "name": "",
          "type": "uint256"
        }
      ],
      "name": "purchases",
      "outputs": [
        {
          "internalType": "uint256",
          "name": "Id",
          "type": "uint256"
        },
        {
          "internalType": "address payable",
          "name": "Buyer",
          "type": "address"
        },
        {
          "internalType": "uint256",
          "name": "licenseId",
          "type": "uint256"
        },
        {
          "internalType": "uint256",
          "name": "DeItemId",
          "type": "uint256"
        },
        {
          "internalType": "enum Depictorial.Type",
          "name": "AssetType",
          "type": "uint8"
        }
      ],
      "stateMutability": "view",
      "type": "function"
    },
    {
      "inputs": [
        {
          "internalType": "address",
          "name": "_addr",
          "type": "address"
        }
      ],
      "name": "registerUser",
      "outputs": [
        {
          "internalType": "bool",
          "name": "",
          "type": "bool"
        }
      ],
      "stateMutability": "nonpayable",
      "type": "function"
    },
    {
      "inputs": [],
      "name": "registerUser",
      "outputs": [
        {
          "internalType": "bool",
          "name": "",
          "type": "bool"
        }
      ],
      "stateMutability": "nonpayable",
      "type": "function"
    },
    {
      "inputs": [
        {
          "internalType": "address",
          "name": "",
          "type": "address"
        }
      ],
      "name": "users",
      "outputs": [
        {
          "internalType": "address payable",
          "name": "userAddress",
          "type": "address"
        }
      ],
      "stateMutability": "view",
      "type": "function"
    },
    {
      "inputs": [],
      "name": "withdraw",
      "outputs": [],
      "stateMutability": "nonpayable",
      "type": "function"
    }
  ],
  "bytecode": "0x608060405260196006556103e860075560646008553480156200002157600080fd5b506001600081815560058054336001600160a01b03199091161790556040805160c081018252828152602080820185815282840185905260608301859052835185815280830185526080840152835180850190945260128452712232b330bab63a1021b7b63632b1ba34b7b760711b9184019190915260a0820192909252600a805480860182559352805160049093027fc65a7bb8d6351c1cf70c95a316cc6a92839c986682d98bc35f958f4883f9d2a8810193845591517fc65a7bb8d6351c1cf70c95a316cc6a92839c986682d98bc35f958f4883f9d2a990920180549194909160ff19169083818111156200011c576200011c62000eb9565b0217905550604082015160018201805461ff00191661010083600381111562000149576200014962000eb9565b021790555060608201516001820180546001600160a01b03909216620100000262010000600160b01b0319909216919091179055608082015180516200019a91600284019160209091019062000dd6565b5060a08201518051620001b891600384019160209091019062000e26565b505050600b6040518060c001604052806000815260200160006001811115620001e557620001e562000eb9565b81526000602080830182905260408084018390528051838152808301825260608501528051808201909152600e81526d44656661756c742041746f6d696360901b81830152608090930192909252835460018082018655948252908290208351600490920201908155908201518184018054939492939192909160ff191690838181111562000278576200027862000eb9565b0217905550604082015160018201805461ff001916610100836003811115620002a557620002a562000eb9565b021790555060608201516001820180546001600160a01b03909216620100000262010000600160b01b031990921691909117905560808201518051620002f691600284019160209091019062000dd6565b5060a082015180516200031491600384019160209091019062000e26565b50506040805160808082018352600080835260208084018281528486018381526060808701858152600c80546001808201835591885298517fdf6966c971051c3d54ec59162606531493a51404a002842f56009d7e5cf4a8c76004909a02998a015593517fdf6966c971051c3d54ec59162606531493a51404a002842f56009d7e5cf4a8c8890180546001600160a01b03199081166001600160a01b039384161790915593517fdf6966c971051c3d54ec59162606531493a51404a002842f56009d7e5cf4a8c98a015590517fdf6966c971051c3d54ec59162606531493a51404a002842f56009d7e5cf4a8ca90980197909755875160a081018952858152938401858152978401858152908401858152958401858152600d80548086018255965284517fd7b6990105719101dabeb77144f2a3385c8033acd3af97e9423a695e81ad1eb5600590970296870190815598517fd7b6990105719101dabeb77144f2a3385c8033acd3af97e9423a695e81ad1eb687018054909416981697909717909155517fd7b6990105719101dabeb77144f2a3385c8033acd3af97e9423a695e81ad1eb784015592517fd7b6990105719101dabeb77144f2a3385c8033acd3af97e9423a695e81ad1eb883015592517fd7b6990105719101dabeb77144f2a3385c8033acd3af97e9423a695e81ad1eb990910180549395509092909160ff199091169083818111156200052c576200052c62000eb9565b02179055506200053e9150506200054f565b506200054962000666565b62000f93565b336000908152600960205260408120546001600160a01b031615620005745750600190565b6040805160a08101825233808252825160008082526020808301865280850192835285518281528082018752858701528551828152808201875260608601528551828152808201875260808601529281526009835293909320825181546001600160a01b0319166001600160a01b039091161781559251805192939262000602926001850192019062000dd6565b50604082015180516200062091600284019160209091019062000dd6565b50606082015180516200063e91600384019160209091019062000dd6565b50608082015180516200065c91600484019160209091019062000dd6565b5060019392505050565b6005546001600160a01b03163314620006c65760405162461bcd60e51b815260206004820152601560248201527f596f7520617265206e6f7420746865206f776e6572000000000000000000000060448201526064015b60405180910390fd5b60408051600580825260c082019092524291600091906020820160a08036833701905050905060005b60058110156200073b576200070681600162000ee5565b8282815181106200071b576200071b62000f00565b602090810291909101015280620007328162000f16565b915050620006ef565b5060005b60058110156200079657620007806200075a82600162000ee5565b6200076e90670de0b6b3a764000062000f34565b6200077a838662000ee5565b62000845565b50806200078d8162000f16565b9150506200073f565b5060005b6005811015620007e257620007cc600080846040518060800160405280605c8152602001620044fd605c9139620009f8565b5080620007d98162000f16565b9150506200079a565b5060005b600581101562000840576200082a60016000846040518060400160405280600c81526020016b436f6c6c656374696f6e203160a01b815250620009f860201b60201c565b5080620008378162000f16565b915050620007e6565b505050565b3360008181526009602052604081205490916001600160a01b0390911614620008b15760405162461bcd60e51b815260206004820152601660248201527f596f7520617265206e6f742072656769737465726564000000000000000000006044820152606401620006bd565b620008c8600362000dc960201b620027341760201c565b6000620008e1600362000dd260201b6200273d1760201c565b60408051608081018252828152336020808301828152838501998a5260608401988952600c805460018082018355600092835295517fdf6966c971051c3d54ec59162606531493a51404a002842f56009d7e5cf4a8c760049092029182015591517fdf6966c971051c3d54ec59162606531493a51404a002842f56009d7e5cf4a8c8830180546001600160a01b0319166001600160a01b0390921691909117905599517fdf6966c971051c3d54ec59162606531493a51404a002842f56009d7e5cf4a8c982015597517fdf6966c971051c3d54ec59162606531493a51404a002842f56009d7e5cf4a8ca90980197909755875260098652908620600301805491820181558652939094209092018390555090919050565b3360008181526009602052604081205490916001600160a01b039091161462000a645760405162461bcd60e51b815260206004820152601660248201527f596f7520617265206e6f742072656769737465726564000000000000000000006044820152606401620006bd565b600085600181111562000a7b5762000a7b62000eb9565b141562000c245762000a99600162000dc960201b620027341760201c565b600062000ab2600162000dd260201b6200273d1760201c565b9050600b6040518060c0016040528083815260200188600181111562000adc5762000adc62000eb9565b815260200187600381111562000af65762000af662000eb9565b8152336020808301919091526040820188905260609091018690528254600181810185556000948552938290208351600490920201908155908201518184018054939492939192909160ff191690838181111562000b585762000b5862000eb9565b0217905550604082015160018201805461ff00191661010083600381111562000b855762000b8562000eb9565b021790555060608201516001820180546001600160a01b03909216620100000262010000600160b01b03199092169190911790556080820151805162000bd691600284019160209091019062000dd6565b5060a0820151805162000bf491600384019160209091019062000e26565b50503360009081526009602090815260408220600201805460018101825590835291200182905550905062000dc1565b62000c3b600262000dc960201b620027341760201c565b600062000c54600262000dd260201b6200273d1760201c565b9050600a6040518060c0016040528083815260200188600181111562000c7e5762000c7e62000eb9565b815260200187600381111562000c985762000c9862000eb9565b8152336020808301919091526040820188905260609091018690528254600181810185556000948552938290208351600490920201908155908201518184018054939492939192909160ff191690838181111562000cfa5762000cfa62000eb9565b0217905550604082015160018201805461ff00191661010083600381111562000d275762000d2762000eb9565b021790555060608201516001820180546001600160a01b03909216620100000262010000600160b01b03199092169190911790556080820151805162000d7891600284019160209091019062000dd6565b5060a0820151805162000d9691600384019160209091019062000e26565b5050336000908152600960209081526040822060019081018054918201815583529120018290555090505b949350505050565b80546001019055565b5490565b82805482825590600052602060002090810192821562000e14579160200282015b8281111562000e1457825182559160200191906001019062000df7565b5062000e2292915062000ea2565b5090565b82805462000e349062000f56565b90600052602060002090601f01602090048101928262000e58576000855562000e14565b82601f1062000e7357805160ff191683800117855562000e14565b8280016001018555821562000e14579182018281111562000e1457825182559160200191906001019062000df7565b5b8082111562000e22576000815560010162000ea3565b634e487b7160e01b600052602160045260246000fd5b634e487b7160e01b600052601160045260246000fd5b6000821982111562000efb5762000efb62000ecf565b500190565b634e487b7160e01b600052603260045260246000fd5b600060001982141562000f2d5762000f2d62000ecf565b5060010190565b600081600019048311821515161562000f515762000f5162000ecf565b500290565b600181811c9082168062000f6b57607f821691505b6020821081141562000f8d57634e487b7160e01b600052602260045260246000fd5b50919050565b61355a8062000fa36000396000f3fe6080604052600436106101355760003560e01c8063873138f3116100ab578063b7c94c5f1161006f578063b7c94c5f146103be578063c95870b4146103d1578063c98fb993146103e6578063cc3d967b14610406578063e1c7392a14610436578063fdbda0ec1461044b57600080fd5b8063873138f3146102ec57806389c808f814610301578063a2a061f014610321578063a87430ba14610341578063b02ab6fe1461038f57600080fd5b80633ccfd60b116100fd5780633ccfd60b146102345780634d3820eb1461024b5780636804a9581461026057806376ea4db01461027557806383197ef0146102a65780638392fe31146102bb57600080fd5b80630b5eeaf71461013a5780631261e6ba1461016d5780631ae6f66b1461018f5780632199d5cd146101bc57806333790845146101ec575b600080fd5b34801561014657600080fd5b5061015a610155366004612d53565b61046b565b6040519081526020015b60405180910390f35b34801561017957600080fd5b506101826105df565b6040516101649190612dd9565b34801561019b57600080fd5b506101af6101aa366004612dfb565b610669565b6040516101649190612f9b565b3480156101c857600080fd5b506101dc6101d7366004612fae565b61091d565b6040519015158152602001610164565b3480156101f857600080fd5b5061020c610207366004612fd7565b610a5f565b604080519485526001600160a01b039093166020850152918301526060820152608001610164565b34801561024057600080fd5b50610249610aa2565b005b34801561025757600080fd5b506101dc610b08565b34801561026c57600080fd5b506101af610c16565b34801561028157600080fd5b50610295610290366004612fd7565b610de7565b604051610164959493929190612ff0565b3480156102b257600080fd5b50610249610ec6565b3480156102c757600080fd5b506102db6102d6366004612fd7565b610efe565b604051610164959493929190613034565b3480156102f857600080fd5b506101dc610f4c565b34801561030d57600080fd5b506101af61031c366004612dfb565b610f76565b34801561032d57600080fd5b506101af61033c36600461313a565b611221565b34801561034d57600080fd5b5061037761035c366004612fae565b6009602052600090815260409020546001600160a01b031681565b6040516001600160a01b039091168152602001610164565b34801561039b57600080fd5b506103af6103aa366004613188565b61169c565b6040516101649392919061321a565b61015a6103cc366004613253565b61192e565b3480156103dd57600080fd5b506101af611eab565b3480156103f257600080fd5b5061015a610401366004613288565b61207c565b34801561041257600080fd5b50610426610421366004612fae565b6123c8565b6040516101649493929190613363565b34801561044257600080fd5b506102496125a8565b34801561045757600080fd5b50610295610466366004612fd7565b612724565b3360008181526009602052604081205490916001600160a01b03909116146104ae5760405162461bcd60e51b81526004016104a5906133b0565b60405180910390fd5b6104bc600380546001019055565b60006104c760035490565b604080516080810182528281523360208083018281528385018a8152606085018a8152600c805460018082018355600092835297517fdf6966c971051c3d54ec59162606531493a51404a002842f56009d7e5cf4a8c760049092029182015593517fdf6966c971051c3d54ec59162606531493a51404a002842f56009d7e5cf4a8c8850180546001600160a01b0319166001600160a01b0390921691909117905591517fdf6966c971051c3d54ec59162606531493a51404a002842f56009d7e5cf4a8c9840155517fdf6966c971051c3d54ec59162606531493a51404a002842f56009d7e5cf4a8ca909201919091559182526009815292812060030180549283018155815291909120018190559150505b92915050565b6060600c805480602002602001604051908101604052809291908181526020016000905b828210156106605760008481526020908190206040805160808101825260048602909201805483526001808201546001600160a01b0316848601526002820154928401929092526003015460608301529083529092019101610603565b50505050905090565b600a5460609060009067ffffffffffffffff81111561068a5761068a61306f565b6040519080825280602002602001820160405280156106c357816020015b6106b0612c03565b8152602001906001900390816106a85790505b5090506000805b600a54811015610914578460038111156106e6576106e6612e16565b600a82815481106106f9576106f96133e0565b906000526020600020906004020160010160019054906101000a900460ff16600381111561072957610729612e16565b141561090257600a8181548110610742576107426133e0565b90600052602060002090600402016040518060c0016040529081600082015481526020016001820160009054906101000a900460ff16600181111561078957610789612e16565b600181111561079a5761079a612e16565b81526020016001820160019054906101000a900460ff1660038111156107c2576107c2612e16565b60038111156107d3576107d3612e16565b815260018201546201000090046001600160a01b0316602080830191909152600283018054604080518285028101850182528281529401939283018282801561083b57602002820191906000526020600020905b815481526020019060010190808311610827575b50505050508152602001600382018054610854906133f6565b80601f0160208091040260200160405190810160405280929190818152602001828054610880906133f6565b80156108cd5780601f106108a2576101008083540402835291602001916108cd565b820191906000526020600020905b8154815290600101906020018083116108b057829003601f168201915b5050505050815250508383815181106108e8576108e86133e0565b602002602001018190525081806108fe90613447565b9250505b8061090c81613447565b9150506106ca565b50909392505050565b6005546000906001600160a01b0316331461094a5760405162461bcd60e51b81526004016104a590613462565b336000908152600960205260409020546001600160a01b03161561097057506001919050565b6040805160a0810182526001600160a01b0384811682528251600080825260208083018652808501928352855182815280820187528587015285518281528082018752606086015285518281528082018752608086015233825260098152949020835181546001600160a01b0319169316929092178255518051929391926109fe9260018501920190612c38565b5060408201518051610a1a916002840191602090910190612c38565b5060608201518051610a36916003840191602090910190612c38565b5060808201518051610a52916004840191602090910190612c38565b506001925050505b919050565b600c8181548110610a6f57600080fd5b600091825260209091206004909102018054600182015460028301546003909301549193506001600160a01b0316919084565b6005546001600160a01b03163314610acc5760405162461bcd60e51b81526004016104a590613462565b6005546040516001600160a01b03909116904780156108fc02916000818181858888f19350505050158015610b05573d6000803e3d6000fd5b50565b336000908152600960205260408120546001600160a01b031615610b2c5750600190565b6040805160a08101825233808252825160008082526020808301865280850192835285518281528082018752858701528551828152808201875260608601528551828152808201875260808601529281526009835293909320825181546001600160a01b0319166001600160a01b0390911617815592518051929392610bb89260018501920190612c38565b5060408201518051610bd4916002840191602090910190612c38565b5060608201518051610bf0916003840191602090910190612c38565b5060808201518051610c0c916004840191602090910190612c38565b5060019392505050565b6060600a805480602002602001604051908101604052809291908181526020016000905b8282101561066057838290600052602060002090600402016040518060c0016040529081600082015481526020016001820160009054906101000a900460ff166001811115610c8b57610c8b612e16565b6001811115610c9c57610c9c612e16565b81526020016001820160019054906101000a900460ff166003811115610cc457610cc4612e16565b6003811115610cd557610cd5612e16565b815260018201546201000090046001600160a01b03166020808301919091526002830180546040805182850281018501825282815294019392830182828015610d3d57602002820191906000526020600020905b815481526020019060010190808311610d29575b50505050508152602001600382018054610d56906133f6565b80601f0160208091040260200160405190810160405280929190818152602001828054610d82906133f6565b8015610dcf5780601f10610da457610100808354040283529160200191610dcf565b820191906000526020600020905b815481529060010190602001808311610db257829003601f168201915b50505050508152505081526020019060010190610c3a565b600b8181548110610df757600080fd5b600091825260209091206004909102018054600182015460038301805492945060ff80831694610100840490911693620100009093046001600160a01b031692909190610e43906133f6565b80601f0160208091040260200160405190810160405280929190818152602001828054610e6f906133f6565b8015610ebc5780601f10610e9157610100808354040283529160200191610ebc565b820191906000526020600020905b815481529060010190602001808311610e9f57829003601f168201915b5050505050905085565b6005546001600160a01b03163314610ef05760405162461bcd60e51b81526004016104a590613462565b6005546001600160a01b0316ff5b600d8181548110610f0e57600080fd5b6000918252602090912060059091020180546001820154600283015460038401546004909401549294506001600160a01b0390911692909160ff1685565b336000908152600960205260408120546001600160a01b031615610f705750600190565b50600090565b600b5460609060009067ffffffffffffffff811115610f9757610f9761306f565b604051908082528060200260200182016040528015610fd057816020015b610fbd612c03565b815260200190600190039081610fb55790505b5090506000805b600b5481101561091457846003811115610ff357610ff3612e16565b600b8281548110611006576110066133e0565b906000526020600020906004020160010160019054906101000a900460ff16600381111561103657611036612e16565b141561120f57600b818154811061104f5761104f6133e0565b90600052602060002090600402016040518060c0016040529081600082015481526020016001820160009054906101000a900460ff16600181111561109657611096612e16565b60018111156110a7576110a7612e16565b81526020016001820160019054906101000a900460ff1660038111156110cf576110cf612e16565b60038111156110e0576110e0612e16565b815260018201546201000090046001600160a01b0316602080830191909152600283018054604080518285028101850182528281529401939283018282801561114857602002820191906000526020600020905b815481526020019060010190808311611134575b50505050508152602001600382018054611161906133f6565b80601f016020809104026020016040519081016040528092919081815260200182805461118d906133f6565b80156111da5780601f106111af576101008083540402835291602001916111da565b820191906000526020600020905b8154815290600101906020018083116111bd57829003601f168201915b5050505050815250508383815181106111f5576111f56133e0565b6020026020010181905250818061120b90613447565b9250505b8061121981613447565b915050610fd7565b60606000835167ffffffffffffffff81111561123f5761123f61306f565b60405190808252806020026020018201604052801561127857816020015b611265612c03565b81526020019060019003908161125d5790505b509050600083600181111561128f5761128f612e16565b14156114975760005b845181101561149157600b8582815181106112b5576112b56133e0565b6020026020010151815481106112cd576112cd6133e0565b90600052602060002090600402016040518060c0016040529081600082015481526020016001820160009054906101000a900460ff16600181111561131457611314612e16565b600181111561132557611325612e16565b81526020016001820160019054906101000a900460ff16600381111561134d5761134d612e16565b600381111561135e5761135e612e16565b815260018201546201000090046001600160a01b031660208083019190915260028301805460408051828502810185018252828152940193928301828280156113c657602002820191906000526020600020905b8154815260200190600101908083116113b2575b505050505081526020016003820180546113df906133f6565b80601f016020809104026020016040519081016040528092919081815260200182805461140b906133f6565b80156114585780601f1061142d57610100808354040283529160200191611458565b820191906000526020600020905b81548152906001019060200180831161143b57829003601f168201915b505050505081525050828281518110611473576114736133e0565b6020026020010181905250808061148990613447565b915050611298565b50611695565b60005b845181101561169357600a8582815181106114b7576114b76133e0565b6020026020010151815481106114cf576114cf6133e0565b90600052602060002090600402016040518060c0016040529081600082015481526020016001820160009054906101000a900460ff16600181111561151657611516612e16565b600181111561152757611527612e16565b81526020016001820160019054906101000a900460ff16600381111561154f5761154f612e16565b600381111561156057611560612e16565b815260018201546201000090046001600160a01b031660208083019190915260028301805460408051828502810185018252828152940193928301828280156115c857602002820191906000526020600020905b8154815260200190600101908083116115b4575b505050505081526020016003820180546115e1906133f6565b80601f016020809104026020016040519081016040528092919081815260200182805461160d906133f6565b801561165a5780601f1061162f5761010080835404028352916020019161165a565b820191906000526020600020905b81548152906001019060200180831161163d57829003601f168201915b505050505081525050828281518110611675576116756133e0565b6020026020010181905250808061168b90613447565b91505061149a565b505b9392505050565b6116a4612c03565b60608060008460018111156116bb576116bb612e16565b14156118f057600b85815481106116d4576116d46133e0565b906000526020600020906004020161175d600b87815481106116f8576116f86133e0565b906000526020600020906004020160020180548060200260200160405190810160405280929190818152602001828054801561175357602002820191906000526020600020905b81548152602001906001019080831161173f575b5050505050612741565b6117678787612882565b6040805160c08101909152835481526001808501548591602084019160ff169081111561179657611796612e16565b60018111156117a7576117a7612e16565b81526020016001820160019054906101000a900460ff1660038111156117cf576117cf612e16565b60038111156117e0576117e0612e16565b815260018201546201000090046001600160a01b0316602080830191909152600283018054604080518285028101850182528281529401939283018282801561184857602002820191906000526020600020905b815481526020019060010190808311611834575b50505050508152602001600382018054611861906133f6565b80601f016020809104026020016040519081016040528092919081815260200182805461188d906133f6565b80156118da5780601f106118af576101008083540402835291602001916118da565b820191906000526020600020905b8154815290600101906020018083116118bd57829003601f168201915b5050505050815250509250925092509250611927565b600a8581548110611903576119036133e0565b906000526020600020906004020161175d600a87815481106116f8576116f86133e0565b9250925092565b3360008181526009602052604081205490916001600160a01b03909116146119685760405162461bcd60e51b81526004016104a5906133b0565b60006001600160a01b0316600c8581548110611986576119866133e0565b60009182526020909120600160049092020101546001600160a01b031614156119ea5760405162461bcd60e51b8152602060048201526016602482015275131a58d95b9cd948191bd95cc81b9bdd08195e1a5cdd60521b60448201526064016104a5565b336001600160a01b0316600c8581548110611a0757611a076133e0565b60009182526020909120600160049092020101546001600160a01b03161415611a725760405162461bcd60e51b815260206004820181905260248201527f596f752061726520746865206f776e6572206f6620746865206c6963656e736560448201526064016104a5565b6000826001811115611a8657611a86612e16565b1415611c0b5760006001600160a01b0316600b8481548110611aaa57611aaa6133e0565b60009182526020909120600490910201600101546201000090046001600160a01b03161415611b135760405162461bcd60e51b8152602060048201526015602482015274105d1bdb5a58c8191bd95cc81b9bdd08195e1a5cdd605a1b60448201526064016104a5565b336001600160a01b0316600b8481548110611b3057611b306133e0565b60009182526020909120600490910201600101546201000090046001600160a01b03161415611ba15760405162461bcd60e51b815260206004820152601f60248201527f596f752061726520746865206f776e6572206f66207468652041746f6d69630060448201526064016104a5565b600b8381548110611bb457611bb46133e0565b600091825260208220600160049092020101546040516001600160a01b036201000090920491909116913480156108fc02929091818181858888f19350505050158015611c05573d6000803e3d6000fd5b50611d9a565b60006001600160a01b0316600a8481548110611c2957611c296133e0565b60009182526020909120600490910201600101546201000090046001600160a01b03161415611c9a5760405162461bcd60e51b815260206004820152601960248201527f436f6c6c656374696f6e20646f6573206e6f742065786973740000000000000060448201526064016104a5565b336001600160a01b0316600a8481548110611cb757611cb76133e0565b60009182526020909120600490910201600101546201000090046001600160a01b03161415611d345760405162461bcd60e51b815260206004820152602360248201527f596f752061726520746865206f776e6572206f662074686520436f6c6c65637460448201526234b7b760e91b60648201526084016104a5565b600a8381548110611d4757611d476133e0565b600091825260208220600160049092020101546040516001600160a01b036201000090920491909116913480156108fc02929091818181858888f19350505050158015611d98573d6000803e3d6000fd5b505b611da8600480546001019055565b6000611db360045490565b9050600d6040518060a00160405280838152602001336001600160a01b03168152602001878152602001868152602001856001811115611df557611df5612e16565b9052815460018082018455600093845260209384902083516005909302019182559282015181840180546001600160a01b0319166001600160a01b0390921691909117905560408201516002820155606082015160038201556080820151600482018054939492939192909160ff1916908381811115611e7757611e77612e16565b0217905550503360009081526009602090815260408220600401805460018101825590835291200182905550949350505050565b6060600b805480602002602001604051908101604052809291908181526020016000905b8282101561066057838290600052602060002090600402016040518060c0016040529081600082015481526020016001820160009054906101000a900460ff166001811115611f2057611f20612e16565b6001811115611f3157611f31612e16565b81526020016001820160019054906101000a900460ff166003811115611f5957611f59612e16565b6003811115611f6a57611f6a612e16565b815260018201546201000090046001600160a01b03166020808301919091526002830180546040805182850281018501825282815294019392830182828015611fd257602002820191906000526020600020905b815481526020019060010190808311611fbe575b50505050508152602001600382018054611feb906133f6565b80601f0160208091040260200160405190810160405280929190818152602001828054612017906133f6565b80156120645780601f1061203957610100808354040283529160200191612064565b820191906000526020600020905b81548152906001019060200180831161204757829003601f168201915b50505050508152505081526020019060010190611ecf565b3360008181526009602052604081205490916001600160a01b03909116146120b65760405162461bcd60e51b81526004016104a5906133b0565b60008560018111156120ca576120ca612e16565b141561224a576120de600180546001019055565b60006120e960015490565b9050600b6040518060c0016040528083815260200188600181111561211057612110612e16565b815260200187600381111561212757612127612e16565b8152336020808301919091526040820188905260609091018690528254600181810185556000948552938290208351600490920201908155908201518184018054939492939192909160ff191690838181111561218657612186612e16565b0217905550604082015160018201805461ff0019166101008360038111156121b0576121b0612e16565b021790555060608201516001820180546001600160a01b03909216620100000262010000600160b01b0319909216919091179055608082015180516121ff916002840191602090910190612c38565b5060a0820151805161221b916003840191602090910190612c83565b5050336000908152600960209081526040822060020180546001810182559083529120018290555090506123c0565b612258600280546001019055565b600061226360025490565b9050600a6040518060c0016040528083815260200188600181111561228a5761228a612e16565b81526020018760038111156122a1576122a1612e16565b8152336020808301919091526040820188905260609091018690528254600181810185556000948552938290208351600490920201908155908201518184018054939492939192909160ff191690838181111561230057612300612e16565b0217905550604082015160018201805461ff00191661010083600381111561232a5761232a612e16565b021790555060608201516001820180546001600160a01b03909216620100000262010000600160b01b031990921691909117905560808201518051612379916002840191602090910190612c38565b5060a08201518051612395916003840191602090910190612c83565b5050336000908152600960209081526040822060019081018054918201815583529120018290555090505b949350505050565b60608060608061244f60096000876001600160a01b03166001600160a01b0316815260200190815260200160002060020180548060200260200160405190810160405280929190818152602001828054801561244357602002820191906000526020600020905b81548152602001906001019080831161242f575b50505050506000612a69565b6001600160a01b03861660009081526009602090815260409182902060010180548351818402810184019094528084526124bf93928301828280156124b357602002820191906000526020600020905b81548152602001906001019080831161249f575b50505050506001612a69565b6001600160a01b038716600090815260096020908152604091829020600301805483518184028101840190945280845261252b9392830182828015611753576020028201919060005260206000209081548152602001906001019080831161173f575050505050612741565b6001600160a01b0388166000908152600960209081526040918290206004018054835181840281018401909452808452612599939283018282801561258f57602002820191906000526020600020905b81548152602001906001019080831161257b575b5050505050612aa2565b93509350935093509193509193565b6005546001600160a01b031633146125d25760405162461bcd60e51b81526004016104a590613462565b60408051600580825260c082019092524291600091906020820160a08036833701905050905060005b600581101561263e5761260f816001613491565b828281518110612621576126216133e0565b60209081029190910101528061263681613447565b9150506125fb565b5060005b600581101561268857612675612659826001613491565b61266b90670de0b6b3a76400006134a9565b6101558386613491565b508061268081613447565b915050612642565b5060005b60058110156126cd576126ba600080846040518060800160405280605c81526020016134c9605c913961207c565b50806126c581613447565b91505061268c565b5060005b600581101561271f5761270c60016000846040518060400160405280600c81526020016b436f6c6c656374696f6e203160a01b81525061207c565b508061271781613447565b9150506126d1565b505050565b600a8181548110610df757600080fd5b80546001019055565b5490565b60606000825167ffffffffffffffff81111561275f5761275f61306f565b6040519080825280602002602001820160405280156127c457816020015b6127b160405180608001604052806000815260200160006001600160a01b0316815260200160008152602001600081525090565b81526020019060019003908161277d5790505b50905060005b835181101561287b57600c8482815181106127e7576127e76133e0565b6020026020010151815481106127ff576127ff6133e0565b60009182526020918290206040805160808101825260049093029091018054835260018101546001600160a01b0316938301939093526002830154908201526003909101546060820152825183908390811061285d5761285d6133e0565b6020026020010181905250808061287390613447565b9150506127ca565b5092915050565b600d5460609060009067ffffffffffffffff8111156128a3576128a361306f565b6040519080825280602002602001820160405280156128dc57816020015b6128c9612cf6565b8152602001906001900390816128c15790505b5090506000805b600d54811015612a5f5785600d8281548110612901576129016133e0565b90600052602060002090600502016003015414801561296a575084600181111561292d5761292d612e16565b600d8281548110612940576129406133e0565b600091825260209091206004600590920201015460ff16600181111561296857612968612e16565b145b15612a4d57600d8181548110612982576129826133e0565b90600052602060002090600502016040518060a0016040529081600082015481526020016001820160009054906101000a90046001600160a01b03166001600160a01b03166001600160a01b0316815260200160028201548152602001600382015481526020016004820160009054906101000a900460ff166001811115612a0c57612a0c612e16565b6001811115612a1d57612a1d612e16565b81525050838381518110612a3357612a336133e0565b60200260200101819052508180612a4990613447565b9250505b80612a5781613447565b9150506128e3565b5090949350505050565b60606000826001811115612a7f57612a7f612e16565b1415612a9757612a90836000611221565b90506105d9565b612a90836001611221565b60606000825167ffffffffffffffff811115612ac057612ac061306f565b604051908082528060200260200182016040528015612af957816020015b612ae6612cf6565b815260200190600190039081612ade5790505b50905060005b835181101561287b57600d848281518110612b1c57612b1c6133e0565b602002602001015181548110612b3457612b346133e0565b90600052602060002090600502016040518060a0016040529081600082015481526020016001820160009054906101000a90046001600160a01b03166001600160a01b03166001600160a01b0316815260200160028201548152602001600382015481526020016004820160009054906101000a900460ff166001811115612bbe57612bbe612e16565b6001811115612bcf57612bcf612e16565b81525050828281518110612be557612be56133e0565b60200260200101819052508080612bfb90613447565b915050612aff565b6040805160c0810190915260008082526020820190815260200160008152600060208201526060604082018190529081015290565b828054828255906000526020600020908101928215612c73579160200282015b82811115612c73578251825591602001919060010190612c58565b50612c7f929150612d3e565b5090565b828054612c8f906133f6565b90600052602060002090601f016020900481019282612cb15760008555612c73565b82601f10612cca57805160ff1916838001178555612c73565b82800160010185558215612c735791820182811115612c73578251825591602001919060010190612c58565b6040518060a001604052806000815260200160006001600160a01b03168152602001600081526020016000815260200160006001811115612d3957612d39612e16565b905290565b5b80821115612c7f5760008155600101612d3f565b60008060408385031215612d6657600080fd5b50508035926020909101359150565b600081518084526020808501945080840160005b83811015612dce57815180518852838101516001600160a01b031684890152604080820151908901526060908101519088015260809096019590820190600101612d89565b509495945050505050565b6020815260006116956020830184612d75565b803560048110610a5a57600080fd5b600060208284031215612e0d57600080fd5b61169582612dec565b634e487b7160e01b600052602160045260246000fd5b60028110612e3c57612e3c612e16565b9052565b60048110612e3c57612e3c612e16565b6000815180845260005b81811015612e7657602081850181015186830182015201612e5a565b81811115612e88576000602083870101525b50601f01601f19169290920160200192915050565b600060c0830182518452602080840151612eb982870182612e2c565b506040840151612ecc6040870182612e40565b506060848101516001600160a01b03169086015260808085015160c09187019190915280519283905281019160009060e08701905b80831015612f215784518252938301936001929092019190830190612f01565b5060a0860151935086810360a0880152612f3b8185612e50565b979650505050505050565b600081518084526020808501808196508360051b8101915082860160005b85811015612f8e578284038952612f7c848351612e9d565b98850198935090840190600101612f64565b5091979650505050505050565b6020815260006116956020830184612f46565b600060208284031215612fc057600080fd5b81356001600160a01b038116811461169557600080fd5b600060208284031215612fe957600080fd5b5035919050565b8581526130006020820186612e2c565b61300d6040820185612e40565b6001600160a01b038316606082015260a060808201819052600090612f3b90830184612e50565b8581526001600160a01b0385166020820152604081018490526060810183905260a081016130656080830184612e2c565b9695505050505050565b634e487b7160e01b600052604160045260246000fd5b604051601f8201601f1916810167ffffffffffffffff811182821017156130ae576130ae61306f565b604052919050565b600082601f8301126130c757600080fd5b8135602067ffffffffffffffff8211156130e3576130e361306f565b8160051b6130f2828201613085565b928352848101820192828101908785111561310c57600080fd5b83870192505b84831015612f3b57823582529183019190830190613112565b803560028110610a5a57600080fd5b6000806040838503121561314d57600080fd5b823567ffffffffffffffff81111561316457600080fd5b613170858286016130b6565b92505061317f6020840161312b565b90509250929050565b6000806040838503121561319b57600080fd5b8235915061317f6020840161312b565b600081518084526020808501945080840160005b83811015612dce57815180518852838101516001600160a01b031684890152604080820151908901526060808201519089015260809081015190613205818a0183612e2c565b505060a09690960195908201906001016131bf565b60608152600061322d6060830186612e9d565b828103602084015261323f8186612d75565b9050828103604084015261306581856131ab565b60008060006060848603121561326857600080fd5b833592506020840135915061327f6040850161312b565b90509250925092565b6000806000806080858703121561329e57600080fd5b6132a78561312b565b935060206132b6818701612dec565b9350604086013567ffffffffffffffff808211156132d357600080fd5b6132df89838a016130b6565b945060608801359150808211156132f557600080fd5b818801915088601f83011261330957600080fd5b81358181111561331b5761331b61306f565b61332d601f8201601f19168501613085565b9150808252898482850101111561334357600080fd5b808484018584013760008482840101525080935050505092959194509250565b6080815260006133766080830187612f46565b82810360208401526133888187612f46565b9050828103604084015261339c8186612d75565b90508281036060840152612f3b81856131ab565b602080825260169082015275165bdd48185c99481b9bdd081c9959da5cdd195c995960521b604082015260600190565b634e487b7160e01b600052603260045260246000fd5b600181811c9082168061340a57607f821691505b6020821081141561342b57634e487b7160e01b600052602260045260246000fd5b50919050565b634e487b7160e01b600052601160045260246000fd5b600060001982141561345b5761345b613431565b5060010190565b6020808252601590820152742cb7ba9030b932903737ba103a34329037bbb732b960591b604082015260600190565b600082198211156134a4576134a4613431565b500190565b60008160001904831182151516156134c3576134c3613431565b50029056fe68747470733a2f2f6261666b726569626b6e7535687076677a726b6778367a677a70347a75626b77766f6d37326634786d6567376870717773616e6f706a68366a35712e697066732e6e667473746f726167652e6c696e6b2020202fa2646970667358221220a03c3f49e54d6e1d1a7cf3e946d286a1bda2e83eedbc40191a48fa54e5b0556e64736f6c6343000809003368747470733a2f2f6261666b726569626b6e7535687076677a726b6778367a677a70347a75626b77766f6d37326634786d6567376870717773616e6f706a68366a35712e697066732e6e667473746f726167652e6c696e6b2020202f",
  "linkReferences": {},
  "deployedLinkReferences": {}
}