{
  "_format": "hh-sol-artifact-1",
  "contractName": "Depictorial",
  "sourceName": "contracts/Depictorial.sol",
  "abi": [
    {
      "inputs": [],
      "stateMutability": "nonpayable",
      "type": "constructor"
    },
    {
      "inputs": [
        {
          "internalType": "uint256",
          "name": "",
          "type": "uint256"
        }
      ],
      "name": "atomics",
      "outputs": [
        {
          "internalType": "uint256",
          "name": "Id",
          "type": "uint256"
        },
        {
          "internalType": "enum Depictorial.Type",
          "name": "AssetType",
          "type": "uint8"
        },
        {
          "internalType": "enum Depictorial.DeItemType",
          "name": "ItemType",
          "type": "uint8"
        },
        {
          "internalType": "address payable",
          "name": "Owner",
          "type": "address"
        },
        {
          "internalType": "string",
          "name": "metaData",
          "type": "string"
        }
      ],
      "stateMutability": "view",
      "type": "function"
    },
    {
      "inputs": [
        {
          "internalType": "uint256",
          "name": "_licenseId",
          "type": "uint256"
        },
        {
          "internalType": "uint256",
          "name": "_deItemId",
          "type": "uint256"
        },
        {
          "internalType": "enum Depictorial.Type",
          "name": "_assetType",
          "type": "uint8"
        }
      ],
      "name": "buyDeItem",
      "outputs": [
        {
          "internalType": "uint256",
          "name": "",
          "type": "uint256"
        }
      ],
      "stateMutability": "payable",
      "type": "function"
    },
    {
      "inputs": [
        {
          "internalType": "uint256",
          "name": "",
          "type": "uint256"
        }
      ],
      "name": "collections",
      "outputs": [
        {
          "internalType": "uint256",
          "name": "Id",
          "type": "uint256"
        },
        {
          "internalType": "enum Depictorial.Type",
          "name": "AssetType",
          "type": "uint8"
        },
        {
          "internalType": "enum Depictorial.DeItemType",
          "name": "ItemType",
          "type": "uint8"
        },
        {
          "internalType": "address payable",
          "name": "Owner",
          "type": "address"
        },
        {
          "internalType": "string",
          "name": "metaData",
          "type": "string"
        }
      ],
      "stateMutability": "view",
      "type": "function"
    },
    {
      "inputs": [
        {
          "internalType": "enum Depictorial.Type",
          "name": "_assetType",
          "type": "uint8"
        },
        {
          "internalType": "enum Depictorial.DeItemType",
          "name": "_itemType",
          "type": "uint8"
        },
        {
          "internalType": "uint256[]",
          "name": "_licenseIds",
          "type": "uint256[]"
        },
        {
          "internalType": "string",
          "name": "_metaData",
          "type": "string"
        }
      ],
      "name": "createDeItem",
      "outputs": [
        {
          "internalType": "uint256",
          "name": "",
          "type": "uint256"
        }
      ],
      "stateMutability": "nonpayable",
      "type": "function"
    },
    {
      "inputs": [
        {
          "internalType": "uint256",
          "name": "_price",
          "type": "uint256"
        },
        {
          "internalType": "uint256",
          "name": "_duration",
          "type": "uint256"
        },
        {
          "internalType": "string",
          "name": "_metaData",
          "type": "string"
        }
      ],
      "name": "createLicense",
      "outputs": [
        {
          "internalType": "uint256",
          "name": "",
          "type": "uint256"
        }
      ],
      "stateMutability": "nonpayable",
      "type": "function"
    },
    {
      "inputs": [],
      "name": "destroy",
      "outputs": [],
      "stateMutability": "nonpayable",
      "type": "function"
    },
    {
      "inputs": [],
      "name": "getAllAtomics",
      "outputs": [
        {
          "components": [
            {
              "internalType": "uint256",
              "name": "Id",
              "type": "uint256"
            },
            {
              "internalType": "enum Depictorial.Type",
              "name": "AssetType",
              "type": "uint8"
            },
            {
              "internalType": "enum Depictorial.DeItemType",
              "name": "ItemType",
              "type": "uint8"
            },
            {
              "internalType": "address payable",
              "name": "Owner",
              "type": "address"
            },
            {
              "internalType": "uint256[]",
              "name": "licenseIds",
              "type": "uint256[]"
            },
            {
              "internalType": "string",
              "name": "metaData",
              "type": "string"
            }
          ],
          "internalType": "struct Depictorial.DeItem[]",
          "name": "",
          "type": "tuple[]"
        }
      ],
      "stateMutability": "view",
      "type": "function"
    },
    {
      "inputs": [
        {
          "internalType": "enum Depictorial.DeItemType",
          "name": "_itemType",
          "type": "uint8"
        }
      ],
      "name": "getAllAtomicsByItemType",
      "outputs": [
        {
          "components": [
            {
              "internalType": "uint256",
              "name": "Id",
              "type": "uint256"
            },
            {
              "internalType": "enum Depictorial.Type",
              "name": "AssetType",
              "type": "uint8"
            },
            {
              "internalType": "enum Depictorial.DeItemType",
              "name": "ItemType",
              "type": "uint8"
            },
            {
              "internalType": "address payable",
              "name": "Owner",
              "type": "address"
            },
            {
              "internalType": "uint256[]",
              "name": "licenseIds",
              "type": "uint256[]"
            },
            {
              "internalType": "string",
              "name": "metaData",
              "type": "string"
            }
          ],
          "internalType": "struct Depictorial.DeItem[]",
          "name": "",
          "type": "tuple[]"
        }
      ],
      "stateMutability": "view",
      "type": "function"
    },
    {
      "inputs": [],
      "name": "getAllCollections",
      "outputs": [
        {
          "components": [
            {
              "internalType": "uint256",
              "name": "Id",
              "type": "uint256"
            },
            {
              "internalType": "enum Depictorial.Type",
              "name": "AssetType",
              "type": "uint8"
            },
            {
              "internalType": "enum Depictorial.DeItemType",
              "name": "ItemType",
              "type": "uint8"
            },
            {
              "internalType": "address payable",
              "name": "Owner",
              "type": "address"
            },
            {
              "internalType": "uint256[]",
              "name": "licenseIds",
              "type": "uint256[]"
            },
            {
              "internalType": "string",
              "name": "metaData",
              "type": "string"
            }
          ],
          "internalType": "struct Depictorial.DeItem[]",
          "name": "",
          "type": "tuple[]"
        }
      ],
      "stateMutability": "view",
      "type": "function"
    },
    {
      "inputs": [
        {
          "internalType": "enum Depictorial.DeItemType",
          "name": "_itemType",
          "type": "uint8"
        }
      ],
      "name": "getAllCollectionsByItemType",
      "outputs": [
        {
          "components": [
            {
              "internalType": "uint256",
              "name": "Id",
              "type": "uint256"
            },
            {
              "internalType": "enum Depictorial.Type",
              "name": "AssetType",
              "type": "uint8"
            },
            {
              "internalType": "enum Depictorial.DeItemType",
              "name": "ItemType",
              "type": "uint8"
            },
            {
              "internalType": "address payable",
              "name": "Owner",
              "type": "address"
            },
            {
              "internalType": "uint256[]",
              "name": "licenseIds",
              "type": "uint256[]"
            },
            {
              "internalType": "string",
              "name": "metaData",
              "type": "string"
            }
          ],
          "internalType": "struct Depictorial.DeItem[]",
          "name": "",
          "type": "tuple[]"
        }
      ],
      "stateMutability": "view",
      "type": "function"
    },
    {
      "inputs": [],
      "name": "getAllLicenses",
      "outputs": [
        {
          "components": [
            {
              "internalType": "uint256",
              "name": "Id",
              "type": "uint256"
            },
            {
              "internalType": "address payable",
              "name": "Owner",
              "type": "address"
            },
            {
              "internalType": "uint256",
              "name": "Price",
              "type": "uint256"
            },
            {
              "internalType": "uint256",
              "name": "Duration",
              "type": "uint256"
            },
            {
              "internalType": "string",
              "name": "metaData",
              "type": "string"
            }
          ],
          "internalType": "struct Depictorial.Licecnse[]",
          "name": "",
          "type": "tuple[]"
        }
      ],
      "stateMutability": "view",
      "type": "function"
    },
    {
      "inputs": [
        {
          "internalType": "uint256",
          "name": "_deItemId",
          "type": "uint256"
        },
        {
          "internalType": "enum Depictorial.Type",
          "name": "_assetType",
          "type": "uint8"
        }
      ],
      "name": "getDeItemById",
      "outputs": [
        {
          "components": [
            {
              "internalType": "uint256",
              "name": "Id",
              "type": "uint256"
            },
            {
              "internalType": "enum Depictorial.Type",
              "name": "AssetType",
              "type": "uint8"
            },
            {
              "internalType": "enum Depictorial.DeItemType",
              "name": "ItemType",
              "type": "uint8"
            },
            {
              "internalType": "address payable",
              "name": "Owner",
              "type": "address"
            },
            {
              "internalType": "uint256[]",
              "name": "licenseIds",
              "type": "uint256[]"
            },
            {
              "internalType": "string",
              "name": "metaData",
              "type": "string"
            }
          ],
          "internalType": "struct Depictorial.DeItem",
          "name": "deItemDetails",
          "type": "tuple"
        },
        {
          "components": [
            {
              "internalType": "uint256",
              "name": "Id",
              "type": "uint256"
            },
            {
              "internalType": "address payable",
              "name": "Owner",
              "type": "address"
            },
            {
              "internalType": "uint256",
              "name": "Price",
              "type": "uint256"
            },
            {
              "internalType": "uint256",
              "name": "Duration",
              "type": "uint256"
            },
            {
              "internalType": "string",
              "name": "metaData",
              "type": "string"
            }
          ],
          "internalType": "struct Depictorial.Licecnse[]",
          "name": "licenseDetails",
          "type": "tuple[]"
        },
        {
          "components": [
            {
              "internalType": "uint256",
              "name": "Id",
              "type": "uint256"
            },
            {
              "internalType": "address payable",
              "name": "Buyer",
              "type": "address"
            },
            {
              "internalType": "uint256",
              "name": "licenseId",
              "type": "uint256"
            },
            {
              "internalType": "uint256",
              "name": "DeItemId",
              "type": "uint256"
            },
            {
              "internalType": "enum Depictorial.Type",
              "name": "AssetType",
              "type": "uint8"
            }
          ],
          "internalType": "struct Depictorial.Purchase[]",
          "name": "purchaseDetails",
          "type": "tuple[]"
        }
      ],
      "stateMutability": "view",
      "type": "function"
    },
    {
      "inputs": [
        {
          "internalType": "uint256[]",
          "name": "_deItemIds",
          "type": "uint256[]"
        },
        {
          "internalType": "enum Depictorial.Type",
          "name": "_assetType",
          "type": "uint8"
        }
      ],
      "name": "getDeItemsByType",
      "outputs": [
        {
          "components": [
            {
              "internalType": "uint256",
              "name": "Id",
              "type": "uint256"
            },
            {
              "internalType": "enum Depictorial.Type",
              "name": "AssetType",
              "type": "uint8"
            },
            {
              "internalType": "enum Depictorial.DeItemType",
              "name": "ItemType",
              "type": "uint8"
            },
            {
              "internalType": "address payable",
              "name": "Owner",
              "type": "address"
            },
            {
              "internalType": "uint256[]",
              "name": "licenseIds",
              "type": "uint256[]"
            },
            {
              "internalType": "string",
              "name": "metaData",
              "type": "string"
            }
          ],
          "internalType": "struct Depictorial.DeItem[]",
          "name": "DeItems",
          "type": "tuple[]"
        }
      ],
      "stateMutability": "view",
      "type": "function"
    },
    {
      "inputs": [
        {
          "internalType": "address",
          "name": "_addr",
          "type": "address"
        }
      ],
      "name": "getUserDetails",
      "outputs": [
        {
          "components": [
            {
              "internalType": "uint256",
              "name": "Id",
              "type": "uint256"
            },
            {
              "internalType": "enum Depictorial.Type",
              "name": "AssetType",
              "type": "uint8"
            },
            {
              "internalType": "enum Depictorial.DeItemType",
              "name": "ItemType",
              "type": "uint8"
            },
            {
              "internalType": "address payable",
              "name": "Owner",
              "type": "address"
            },
            {
              "internalType": "uint256[]",
              "name": "licenseIds",
              "type": "uint256[]"
            },
            {
              "internalType": "string",
              "name": "metaData",
              "type": "string"
            }
          ],
          "internalType": "struct Depictorial.DeItem[]",
          "name": "atomicDetails",
          "type": "tuple[]"
        },
        {
          "components": [
            {
              "internalType": "uint256",
              "name": "Id",
              "type": "uint256"
            },
            {
              "internalType": "enum Depictorial.Type",
              "name": "AssetType",
              "type": "uint8"
            },
            {
              "internalType": "enum Depictorial.DeItemType",
              "name": "ItemType",
              "type": "uint8"
            },
            {
              "internalType": "address payable",
              "name": "Owner",
              "type": "address"
            },
            {
              "internalType": "uint256[]",
              "name": "licenseIds",
              "type": "uint256[]"
            },
            {
              "internalType": "string",
              "name": "metaData",
              "type": "string"
            }
          ],
          "internalType": "struct Depictorial.DeItem[]",
          "name": "collectionDetails",
          "type": "tuple[]"
        },
        {
          "components": [
            {
              "internalType": "uint256",
              "name": "Id",
              "type": "uint256"
            },
            {
              "internalType": "address payable",
              "name": "Owner",
              "type": "address"
            },
            {
              "internalType": "uint256",
              "name": "Price",
              "type": "uint256"
            },
            {
              "internalType": "uint256",
              "name": "Duration",
              "type": "uint256"
            },
            {
              "internalType": "string",
              "name": "metaData",
              "type": "string"
            }
          ],
          "internalType": "struct Depictorial.Licecnse[]",
          "name": "licenseDetails",
          "type": "tuple[]"
        },
        {
          "components": [
            {
              "internalType": "uint256",
              "name": "Id",
              "type": "uint256"
            },
            {
              "internalType": "address payable",
              "name": "Buyer",
              "type": "address"
            },
            {
              "internalType": "uint256",
              "name": "licenseId",
              "type": "uint256"
            },
            {
              "internalType": "uint256",
              "name": "DeItemId",
              "type": "uint256"
            },
            {
              "internalType": "enum Depictorial.Type",
              "name": "AssetType",
              "type": "uint8"
            }
          ],
          "internalType": "struct Depictorial.Purchase[]",
          "name": "purchaseDetails",
          "type": "tuple[]"
        }
      ],
      "stateMutability": "view",
      "type": "function"
    },
    {
      "inputs": [],
      "name": "init",
      "outputs": [],
      "stateMutability": "nonpayable",
      "type": "function"
    },
    {
      "inputs": [],
      "name": "isUserRegistered",
      "outputs": [
        {
          "internalType": "bool",
          "name": "",
          "type": "bool"
        }
      ],
      "stateMutability": "view",
      "type": "function"
    },
    {
      "inputs": [
        {
          "internalType": "uint256",
          "name": "",
          "type": "uint256"
        }
      ],
      "name": "licenses",
      "outputs": [
        {
          "internalType": "uint256",
          "name": "Id",
          "type": "uint256"
        },
        {
          "internalType": "address payable",
          "name": "Owner",
          "type": "address"
        },
        {
          "internalType": "uint256",
          "name": "Price",
          "type": "uint256"
        },
        {
          "internalType": "uint256",
          "name": "Duration",
          "type": "uint256"
        },
        {
          "internalType": "string",
          "name": "metaData",
          "type": "string"
        }
      ],
      "stateMutability": "view",
      "type": "function"
    },
    {
      "inputs": [
        {
          "internalType": "uint256",
          "name": "",
          "type": "uint256"
        }
      ],
      "name": "purchases",
      "outputs": [
        {
          "internalType": "uint256",
          "name": "Id",
          "type": "uint256"
        },
        {
          "internalType": "address payable",
          "name": "Buyer",
          "type": "address"
        },
        {
          "internalType": "uint256",
          "name": "licenseId",
          "type": "uint256"
        },
        {
          "internalType": "uint256",
          "name": "DeItemId",
          "type": "uint256"
        },
        {
          "internalType": "enum Depictorial.Type",
          "name": "AssetType",
          "type": "uint8"
        }
      ],
      "stateMutability": "view",
      "type": "function"
    },
    {
      "inputs": [
        {
          "internalType": "address",
          "name": "_addr",
          "type": "address"
        }
      ],
      "name": "registerUser",
      "outputs": [
        {
          "internalType": "bool",
          "name": "",
          "type": "bool"
        }
      ],
      "stateMutability": "nonpayable",
      "type": "function"
    },
    {
      "inputs": [],
      "name": "registerUser",
      "outputs": [
        {
          "internalType": "bool",
          "name": "",
          "type": "bool"
        }
      ],
      "stateMutability": "nonpayable",
      "type": "function"
    },
    {
      "inputs": [
        {
          "internalType": "address",
          "name": "",
          "type": "address"
        }
      ],
      "name": "users",
      "outputs": [
        {
          "internalType": "address payable",
          "name": "userAddress",
          "type": "address"
        }
      ],
      "stateMutability": "view",
      "type": "function"
    },
    {
      "inputs": [],
      "name": "withdraw",
      "outputs": [],
      "stateMutability": "nonpayable",
      "type": "function"
    }
  ],
  "bytecode": "0x608060405260196006556103e860075560646008553480156200002157600080fd5b506001600081815560058054336001600160a01b03199091161790556040805160c081018252828152602080820185815282840185905260608301859052835185815280830185526080840152835180850190945260128452712232b330bab63a1021b7b63632b1ba34b7b760711b9184019190915260a0820192909252600a805480860182559352805160049093027fc65a7bb8d6351c1cf70c95a316cc6a92839c986682d98bc35f958f4883f9d2a8810193845591517fc65a7bb8d6351c1cf70c95a316cc6a92839c986682d98bc35f958f4883f9d2a990920180549194909160ff19169083818111156200011c576200011c62000f32565b0217905550604082015160018201805461ff00191661010083600381111562000149576200014962000f32565b021790555060608201516001820180546001600160a01b03909216620100000262010000600160b01b0319909216919091179055608082015180516200019a91600284019160209091019062000e4f565b5060a08201518051620001b891600384019160209091019062000e9f565b505050600b6040518060c001604052806000815260200160006001811115620001e557620001e562000f32565b81526000602080830182905260408084018390528051838152808301825260608501528051808201909152600e81526d44656661756c742041746f6d696360901b81830152608090930192909252835460018082018655948252908290208351600490920201908155908201518184018054939492939192909160ff191690838181111562000278576200027862000f32565b0217905550604082015160018201805461ff001916610100836003811115620002a557620002a562000f32565b021790555060608201516001820180546001600160a01b03909216620100000262010000600160b01b031990921691909117905560808201518051620002f691600284019160209091019062000e4f565b5060a082015180516200031491600384019160209091019062000e9f565b50506040805160a08101825260008082526020808301828152838501838152606085018481528651808801909752600f87526e44656661756c74204c6963656e736560881b8785015260808601968752600c8054600181018255955285517fdf6966c971051c3d54ec59162606531493a51404a002842f56009d7e5cf4a8c7600590960295860190815592517fdf6966c971051c3d54ec59162606531493a51404a002842f56009d7e5cf4a8c8860180546001600160a01b0319166001600160a01b0390921691909117905590517fdf6966c971051c3d54ec59162606531493a51404a002842f56009d7e5cf4a8c9850155517fdf6966c971051c3d54ec59162606531493a51404a002842f56009d7e5cf4a8ca8401559351805193955062000465937fdf6966c971051c3d54ec59162606531493a51404a002842f56009d7e5cf4a8cb9093019291019062000e9f565b505050600d6040518060a001604052806000815260200160006001600160a01b03168152602001600081526020016000815260200160006001811115620004b057620004b062000f32565b9052815460018082018455600093845260209384902083516005909302019182559282015181840180546001600160a01b0319166001600160a01b0390921691909117905560408201516002820155606082015160038201556080820151600482018054939492939192909160ff191690838181111562000535576200053562000f32565b02179055506200054791505062000558565b50620005526200066f565b6200100c565b336000908152600960205260408120546001600160a01b0316156200057d5750600190565b6040805160a08101825233808252825160008082526020808301865280850192835285518281528082018752858701528551828152808201875260608601528551828152808201875260808601529281526009835293909320825181546001600160a01b0319166001600160a01b03909116178155925180519293926200060b926001850192019062000e4f565b50604082015180516200062991600284019160209091019062000e4f565b50606082015180516200064791600384019160209091019062000e4f565b50608082015180516200066591600484019160209091019062000e4f565b5060019392505050565b6005546001600160a01b03163314620006cf5760405162461bcd60e51b815260206004820152601560248201527f596f7520617265206e6f7420746865206f776e6572000000000000000000000060448201526064015b60405180910390fd5b60408051600580825260c082019092524291600091906020820160a08036833701905050905060005b600581101562000744576200070f81600162000f5e565b82828151811062000724576200072462000f79565b6020908102919091010152806200073b8162000f8f565b915050620006f8565b5060005b6005811015620007c357620007ad6200076382600162000f5e565b6200077790670de0b6b3a764000062000fad565b62000783838662000f5e565b60408051808201909152600d81526c4d65746164617461206c696e6b60981b602082015262000872565b5080620007ba8162000f8f565b91505062000748565b5060005b60058110156200080f57620007f9600080846040518060800160405280605c8152602001620047f7605c913962000a71565b5080620008068162000f8f565b915050620007c7565b5060005b60058110156200086d576200085760016000846040518060400160405280600c81526020016b436f6c6c656374696f6e203160a01b81525062000a7160201b60201c565b5080620008648162000f8f565b91505062000813565b505050565b3360008181526009602052604081205490916001600160a01b0390911614620008de5760405162461bcd60e51b815260206004820152601660248201527f596f7520617265206e6f742072656769737465726564000000000000000000006044820152606401620006c6565b620008f5600362000e4260201b620028441760201c565b60006200090e600362000e4b60201b6200284d1760201c565b6040805160a0810182528281523360208083019182529282018981526060830189815260808401898152600c805460018101825560009190915285517fdf6966c971051c3d54ec59162606531493a51404a002842f56009d7e5cf4a8c7600590920291820190815594517fdf6966c971051c3d54ec59162606531493a51404a002842f56009d7e5cf4a8c8820180546001600160a01b0319166001600160a01b0390921691909117905592517fdf6966c971051c3d54ec59162606531493a51404a002842f56009d7e5cf4a8c984015590517fdf6966c971051c3d54ec59162606531493a51404a002842f56009d7e5cf4a8ca8301555180519596509294919362000a41937fdf6966c971051c3d54ec59162606531493a51404a002842f56009d7e5cf4a8cb9092019291019062000e9f565b50503360009081526009602090815260408220600301805460018101825590835291200182905550949350505050565b3360008181526009602052604081205490916001600160a01b039091161462000add5760405162461bcd60e51b815260206004820152601660248201527f596f7520617265206e6f742072656769737465726564000000000000000000006044820152606401620006c6565b600085600181111562000af45762000af462000f32565b141562000c9d5762000b12600162000e4260201b620028441760201c565b600062000b2b600162000e4b60201b6200284d1760201c565b9050600b6040518060c0016040528083815260200188600181111562000b555762000b5562000f32565b815260200187600381111562000b6f5762000b6f62000f32565b8152336020808301919091526040820188905260609091018690528254600181810185556000948552938290208351600490920201908155908201518184018054939492939192909160ff191690838181111562000bd15762000bd162000f32565b0217905550604082015160018201805461ff00191661010083600381111562000bfe5762000bfe62000f32565b021790555060608201516001820180546001600160a01b03909216620100000262010000600160b01b03199092169190911790556080820151805162000c4f91600284019160209091019062000e4f565b5060a0820151805162000c6d91600384019160209091019062000e9f565b50503360009081526009602090815260408220600201805460018101825590835291200182905550905062000e3a565b62000cb4600262000e4260201b620028441760201c565b600062000ccd600262000e4b60201b6200284d1760201c565b9050600a6040518060c0016040528083815260200188600181111562000cf75762000cf762000f32565b815260200187600381111562000d115762000d1162000f32565b8152336020808301919091526040820188905260609091018690528254600181810185556000948552938290208351600490920201908155908201518184018054939492939192909160ff191690838181111562000d735762000d7362000f32565b0217905550604082015160018201805461ff00191661010083600381111562000da05762000da062000f32565b021790555060608201516001820180546001600160a01b03909216620100000262010000600160b01b03199092169190911790556080820151805162000df191600284019160209091019062000e4f565b5060a0820151805162000e0f91600384019160209091019062000e9f565b5050336000908152600960209081526040822060019081018054918201815583529120018290555090505b949350505050565b80546001019055565b5490565b82805482825590600052602060002090810192821562000e8d579160200282015b8281111562000e8d57825182559160200191906001019062000e70565b5062000e9b92915062000f1b565b5090565b82805462000ead9062000fcf565b90600052602060002090601f01602090048101928262000ed1576000855562000e8d565b82601f1062000eec57805160ff191683800117855562000e8d565b8280016001018555821562000e8d579182018281111562000e8d57825182559160200191906001019062000e70565b5b8082111562000e9b576000815560010162000f1c565b634e487b7160e01b600052602160045260246000fd5b634e487b7160e01b600052601160045260246000fd5b6000821982111562000f745762000f7462000f48565b500190565b634e487b7160e01b600052603260045260246000fd5b600060001982141562000fa65762000fa662000f48565b5060010190565b600081600019048311821515161562000fca5762000fca62000f48565b500290565b600181811c9082168062000fe457607f821691505b602082108114156200100657634e487b7160e01b600052602260045260246000fd5b50919050565b6137db806200101c6000396000f3fe6080604052600436106101355760003560e01c806389c808f8116100ab578063c95870b41161006f578063c95870b41461039e578063c98fb993146103b3578063cc3d967b146103d3578063d271caa314610403578063e1c7392a14610423578063fdbda0ec1461043857600080fd5b806389c808f8146102c0578063a2a061f0146102e0578063a87430ba14610300578063b02ab6fe1461034e578063b7c94c5f1461037d57600080fd5b80634d3820eb116100fd5780634d3820eb1461020a5780636804a9581461021f57806376ea4db01461023457806383197ef0146102655780638392fe311461027a578063873138f3146102ab57600080fd5b80631261e6ba1461013a5780631ae6f66b146101655780632199d5cd1461019257806333790845146101c25780633ccfd60b146101f3575b600080fd5b34801561014657600080fd5b5061014f610458565b60405161015c9190612ff8565b60405180910390f35b34801561017157600080fd5b50610185610180366004613021565b61057e565b60405161015c9190613174565b34801561019e57600080fd5b506101b26101ad366004613187565b610832565b604051901515815260200161015c565b3480156101ce57600080fd5b506101e26101dd3660046131b0565b61097d565b60405161015c9594939291906131c9565b3480156101ff57600080fd5b50610208610a54565b005b34801561021657600080fd5b506101b2610aba565b34801561022b57600080fd5b50610185610bc8565b34801561024057600080fd5b5061025461024f3660046131b0565b610d99565b60405161015c9594939291906131fc565b34801561027157600080fd5b50610208610df5565b34801561028657600080fd5b5061029a6102953660046131b0565b610e2d565b60405161015c959493929190613240565b3480156102b757600080fd5b506101b2610e7b565b3480156102cc57600080fd5b506101856102db366004613021565b610ea5565b3480156102ec57600080fd5b506101856102fb366004613346565b611150565b34801561030c57600080fd5b5061033661031b366004613187565b6009602052600090815260409020546001600160a01b031681565b6040516001600160a01b03909116815260200161015c565b34801561035a57600080fd5b5061036e610369366004613394565b6115cd565b60405161015c93929190613431565b61039061038b36600461346a565b61185f565b60405190815260200161015c565b3480156103aa57600080fd5b50610185611ddc565b3480156103bf57600080fd5b506103906103ce36600461350f565b611fad565b3480156103df57600080fd5b506103f36103ee366004613187565b6122f9565b60405161015c9493929190613594565b34801561040f57600080fd5b5061039061041e3660046135e1565b6124d9565b34801561042f57600080fd5b5061020861268d565b34801561044457600080fd5b506102546104533660046131b0565b612834565b6060600c805480602002602001604051908101604052809291908181526020016000905b828210156105755760008481526020908190206040805160a081018252600586029092018054835260018101546001600160a01b031693830193909352600283015490820152600382015460608201526004820180549192916080840191906104e490613631565b80601f016020809104026020016040519081016040528092919081815260200182805461051090613631565b801561055d5780601f106105325761010080835404028352916020019161055d565b820191906000526020600020905b81548152906001019060200180831161054057829003601f168201915b5050505050815250508152602001906001019061047c565b50505050905090565b600a5460609060009067ffffffffffffffff81111561059f5761059f61327b565b6040519080825280602002602001820160405280156105d857816020015b6105c5612dc6565b8152602001906001900390816105bd5790505b5090506000805b600a54811015610829578460038111156105fb576105fb61303c565b600a828154811061060e5761060e61366c565b906000526020600020906004020160010160019054906101000a900460ff16600381111561063e5761063e61303c565b141561081757600a81815481106106575761065761366c565b90600052602060002090600402016040518060c0016040529081600082015481526020016001820160009054906101000a900460ff16600181111561069e5761069e61303c565b60018111156106af576106af61303c565b81526020016001820160019054906101000a900460ff1660038111156106d7576106d761303c565b60038111156106e8576106e861303c565b815260018201546201000090046001600160a01b0316602080830191909152600283018054604080518285028101850182528281529401939283018282801561075057602002820191906000526020600020905b81548152602001906001019080831161073c575b5050505050815260200160038201805461076990613631565b80601f016020809104026020016040519081016040528092919081815260200182805461079590613631565b80156107e25780601f106107b7576101008083540402835291602001916107e2565b820191906000526020600020905b8154815290600101906020018083116107c557829003601f168201915b5050505050815250508383815181106107fd576107fd61366c565b6020026020010181905250818061081390613698565b9250505b8061082181613698565b9150506105df565b50909392505050565b6005546000906001600160a01b031633146108685760405162461bcd60e51b815260040161085f906136b3565b60405180910390fd5b336000908152600960205260409020546001600160a01b03161561088e57506001919050565b6040805160a0810182526001600160a01b0384811682528251600080825260208083018652808501928352855182815280820187528587015285518281528082018752606086015285518281528082018752608086015233825260098152949020835181546001600160a01b03191693169290921782555180519293919261091c9260018501920190612dfb565b5060408201518051610938916002840191602090910190612dfb565b5060608201518051610954916003840191602090910190612dfb565b5060808201518051610970916004840191602090910190612dfb565b506001925050505b919050565b600c818154811061098d57600080fd5b6000918252602090912060059091020180546001820154600283015460038401546004850180549496506001600160a01b039093169491939092906109d190613631565b80601f01602080910402602001604051908101604052809291908181526020018280546109fd90613631565b8015610a4a5780601f10610a1f57610100808354040283529160200191610a4a565b820191906000526020600020905b815481529060010190602001808311610a2d57829003601f168201915b5050505050905085565b6005546001600160a01b03163314610a7e5760405162461bcd60e51b815260040161085f906136b3565b6005546040516001600160a01b03909116904780156108fc02916000818181858888f19350505050158015610ab7573d6000803e3d6000fd5b50565b336000908152600960205260408120546001600160a01b031615610ade5750600190565b6040805160a08101825233808252825160008082526020808301865280850192835285518281528082018752858701528551828152808201875260608601528551828152808201875260808601529281526009835293909320825181546001600160a01b0319166001600160a01b0390911617815592518051929392610b6a9260018501920190612dfb565b5060408201518051610b86916002840191602090910190612dfb565b5060608201518051610ba2916003840191602090910190612dfb565b5060808201518051610bbe916004840191602090910190612dfb565b5060019392505050565b6060600a805480602002602001604051908101604052809291908181526020016000905b8282101561057557838290600052602060002090600402016040518060c0016040529081600082015481526020016001820160009054906101000a900460ff166001811115610c3d57610c3d61303c565b6001811115610c4e57610c4e61303c565b81526020016001820160019054906101000a900460ff166003811115610c7657610c7661303c565b6003811115610c8757610c8761303c565b815260018201546201000090046001600160a01b03166020808301919091526002830180546040805182850281018501825282815294019392830182828015610cef57602002820191906000526020600020905b815481526020019060010190808311610cdb575b50505050508152602001600382018054610d0890613631565b80601f0160208091040260200160405190810160405280929190818152602001828054610d3490613631565b8015610d815780601f10610d5657610100808354040283529160200191610d81565b820191906000526020600020905b815481529060010190602001808311610d6457829003601f168201915b50505050508152505081526020019060010190610bec565b600b8181548110610da957600080fd5b600091825260209091206004909102018054600182015460038301805492945060ff80831694610100840490911693620100009093046001600160a01b0316929091906109d190613631565b6005546001600160a01b03163314610e1f5760405162461bcd60e51b815260040161085f906136b3565b6005546001600160a01b0316ff5b600d8181548110610e3d57600080fd5b6000918252602090912060059091020180546001820154600283015460038401546004909401549294506001600160a01b0390911692909160ff1685565b336000908152600960205260408120546001600160a01b031615610e9f5750600190565b50600090565b600b5460609060009067ffffffffffffffff811115610ec657610ec661327b565b604051908082528060200260200182016040528015610eff57816020015b610eec612dc6565b815260200190600190039081610ee45790505b5090506000805b600b5481101561082957846003811115610f2257610f2261303c565b600b8281548110610f3557610f3561366c565b906000526020600020906004020160010160019054906101000a900460ff166003811115610f6557610f6561303c565b141561113e57600b8181548110610f7e57610f7e61366c565b90600052602060002090600402016040518060c0016040529081600082015481526020016001820160009054906101000a900460ff166001811115610fc557610fc561303c565b6001811115610fd657610fd661303c565b81526020016001820160019054906101000a900460ff166003811115610ffe57610ffe61303c565b600381111561100f5761100f61303c565b815260018201546201000090046001600160a01b0316602080830191909152600283018054604080518285028101850182528281529401939283018282801561107757602002820191906000526020600020905b815481526020019060010190808311611063575b5050505050815260200160038201805461109090613631565b80601f01602080910402602001604051908101604052809291908181526020018280546110bc90613631565b80156111095780601f106110de57610100808354040283529160200191611109565b820191906000526020600020905b8154815290600101906020018083116110ec57829003601f168201915b5050505050815250508383815181106111245761112461366c565b6020026020010181905250818061113a90613698565b9250505b8061114881613698565b915050610f06565b60606000835167ffffffffffffffff81111561116e5761116e61327b565b6040519080825280602002602001820160405280156111a757816020015b611194612dc6565b81526020019060019003908161118c5790505b50905060008360018111156111be576111be61303c565b14156113c65760005b84518110156113c057600b8582815181106111e4576111e461366c565b6020026020010151815481106111fc576111fc61366c565b90600052602060002090600402016040518060c0016040529081600082015481526020016001820160009054906101000a900460ff1660018111156112435761124361303c565b60018111156112545761125461303c565b81526020016001820160019054906101000a900460ff16600381111561127c5761127c61303c565b600381111561128d5761128d61303c565b815260018201546201000090046001600160a01b031660208083019190915260028301805460408051828502810185018252828152940193928301828280156112f557602002820191906000526020600020905b8154815260200190600101908083116112e1575b5050505050815260200160038201805461130e90613631565b80601f016020809104026020016040519081016040528092919081815260200182805461133a90613631565b80156113875780601f1061135c57610100808354040283529160200191611387565b820191906000526020600020905b81548152906001019060200180831161136a57829003601f168201915b5050505050815250508282815181106113a2576113a261366c565b602002602001018190525080806113b890613698565b9150506111c7565b506115c4565b60005b84518110156115c257600a8582815181106113e6576113e661366c565b6020026020010151815481106113fe576113fe61366c565b90600052602060002090600402016040518060c0016040529081600082015481526020016001820160009054906101000a900460ff1660018111156114455761144561303c565b60018111156114565761145661303c565b81526020016001820160019054906101000a900460ff16600381111561147e5761147e61303c565b600381111561148f5761148f61303c565b815260018201546201000090046001600160a01b031660208083019190915260028301805460408051828502810185018252828152940193928301828280156114f757602002820191906000526020600020905b8154815260200190600101908083116114e3575b5050505050815260200160038201805461151090613631565b80601f016020809104026020016040519081016040528092919081815260200182805461153c90613631565b80156115895780601f1061155e57610100808354040283529160200191611589565b820191906000526020600020905b81548152906001019060200180831161156c57829003601f168201915b5050505050815250508282815181106115a4576115a461366c565b602002602001018190525080806115ba90613698565b9150506113c9565b505b90505b92915050565b6115d5612dc6565b60608060008460018111156115ec576115ec61303c565b141561182157600b85815481106116055761160561366c565b906000526020600020906004020161168e600b87815481106116295761162961366c565b906000526020600020906004020160020180548060200260200160405190810160405280929190818152602001828054801561168457602002820191906000526020600020905b815481526020019060010190808311611670575b5050505050612851565b6116988787612a45565b6040805160c08101909152835481526001808501548591602084019160ff16908111156116c7576116c761303c565b60018111156116d8576116d861303c565b81526020016001820160019054906101000a900460ff1660038111156117005761170061303c565b60038111156117115761171161303c565b815260018201546201000090046001600160a01b0316602080830191909152600283018054604080518285028101850182528281529401939283018282801561177957602002820191906000526020600020905b815481526020019060010190808311611765575b5050505050815260200160038201805461179290613631565b80601f01602080910402602001604051908101604052809291908181526020018280546117be90613631565b801561180b5780601f106117e05761010080835404028352916020019161180b565b820191906000526020600020905b8154815290600101906020018083116117ee57829003601f168201915b5050505050815250509250925092509250611858565b600a85815481106118345761183461366c565b906000526020600020906004020161168e600a87815481106116295761162961366c565b9250925092565b3360008181526009602052604081205490916001600160a01b03909116146118995760405162461bcd60e51b815260040161085f906136e2565b60006001600160a01b0316600c85815481106118b7576118b761366c565b60009182526020909120600160059092020101546001600160a01b0316141561191b5760405162461bcd60e51b8152602060048201526016602482015275131a58d95b9cd948191bd95cc81b9bdd08195e1a5cdd60521b604482015260640161085f565b336001600160a01b0316600c85815481106119385761193861366c565b60009182526020909120600160059092020101546001600160a01b031614156119a35760405162461bcd60e51b815260206004820181905260248201527f596f752061726520746865206f776e6572206f6620746865206c6963656e7365604482015260640161085f565b60008260018111156119b7576119b761303c565b1415611b3c5760006001600160a01b0316600b84815481106119db576119db61366c565b60009182526020909120600490910201600101546201000090046001600160a01b03161415611a445760405162461bcd60e51b8152602060048201526015602482015274105d1bdb5a58c8191bd95cc81b9bdd08195e1a5cdd605a1b604482015260640161085f565b336001600160a01b0316600b8481548110611a6157611a6161366c565b60009182526020909120600490910201600101546201000090046001600160a01b03161415611ad25760405162461bcd60e51b815260206004820152601f60248201527f596f752061726520746865206f776e6572206f66207468652041746f6d696300604482015260640161085f565b600b8381548110611ae557611ae561366c565b600091825260208220600160049092020101546040516001600160a01b036201000090920491909116913480156108fc02929091818181858888f19350505050158015611b36573d6000803e3d6000fd5b50611ccb565b60006001600160a01b0316600a8481548110611b5a57611b5a61366c565b60009182526020909120600490910201600101546201000090046001600160a01b03161415611bcb5760405162461bcd60e51b815260206004820152601960248201527f436f6c6c656374696f6e20646f6573206e6f7420657869737400000000000000604482015260640161085f565b336001600160a01b0316600a8481548110611be857611be861366c565b60009182526020909120600490910201600101546201000090046001600160a01b03161415611c655760405162461bcd60e51b815260206004820152602360248201527f596f752061726520746865206f776e6572206f662074686520436f6c6c65637460448201526234b7b760e91b606482015260840161085f565b600a8381548110611c7857611c7861366c565b600091825260208220600160049092020101546040516001600160a01b036201000090920491909116913480156108fc02929091818181858888f19350505050158015611cc9573d6000803e3d6000fd5b505b611cd9600480546001019055565b6000611ce460045490565b9050600d6040518060a00160405280838152602001336001600160a01b03168152602001878152602001868152602001856001811115611d2657611d2661303c565b9052815460018082018455600093845260209384902083516005909302019182559282015181840180546001600160a01b0319166001600160a01b0390921691909117905560408201516002820155606082015160038201556080820151600482018054939492939192909160ff1916908381811115611da857611da861303c565b0217905550503360009081526009602090815260408220600401805460018101825590835291200182905550949350505050565b6060600b805480602002602001604051908101604052809291908181526020016000905b8282101561057557838290600052602060002090600402016040518060c0016040529081600082015481526020016001820160009054906101000a900460ff166001811115611e5157611e5161303c565b6001811115611e6257611e6261303c565b81526020016001820160019054906101000a900460ff166003811115611e8a57611e8a61303c565b6003811115611e9b57611e9b61303c565b815260018201546201000090046001600160a01b03166020808301919091526002830180546040805182850281018501825282815294019392830182828015611f0357602002820191906000526020600020905b815481526020019060010190808311611eef575b50505050508152602001600382018054611f1c90613631565b80601f0160208091040260200160405190810160405280929190818152602001828054611f4890613631565b8015611f955780601f10611f6a57610100808354040283529160200191611f95565b820191906000526020600020905b815481529060010190602001808311611f7857829003601f168201915b50505050508152505081526020019060010190611e00565b3360008181526009602052604081205490916001600160a01b0390911614611fe75760405162461bcd60e51b815260040161085f906136e2565b6000856001811115611ffb57611ffb61303c565b141561217b5761200f600180546001019055565b600061201a60015490565b9050600b6040518060c001604052808381526020018860018111156120415761204161303c565b81526020018760038111156120585761205861303c565b8152336020808301919091526040820188905260609091018690528254600181810185556000948552938290208351600490920201908155908201518184018054939492939192909160ff19169083818111156120b7576120b761303c565b0217905550604082015160018201805461ff0019166101008360038111156120e1576120e161303c565b021790555060608201516001820180546001600160a01b03909216620100000262010000600160b01b031990921691909117905560808201518051612130916002840191602090910190612dfb565b5060a0820151805161214c916003840191602090910190612e46565b5050336000908152600960209081526040822060020180546001810182559083529120018290555090506122f1565b612189600280546001019055565b600061219460025490565b9050600a6040518060c001604052808381526020018860018111156121bb576121bb61303c565b81526020018760038111156121d2576121d261303c565b8152336020808301919091526040820188905260609091018690528254600181810185556000948552938290208351600490920201908155908201518184018054939492939192909160ff19169083818111156122315761223161303c565b0217905550604082015160018201805461ff00191661010083600381111561225b5761225b61303c565b021790555060608201516001820180546001600160a01b03909216620100000262010000600160b01b0319909216919091179055608082015180516122aa916002840191602090910190612dfb565b5060a082015180516122c6916003840191602090910190612e46565b5050336000908152600960209081526040822060019081018054918201815583529120018290555090505b949350505050565b60608060608061238060096000876001600160a01b03166001600160a01b0316815260200190815260200160002060020180548060200260200160405190810160405280929190818152602001828054801561237457602002820191906000526020600020905b815481526020019060010190808311612360575b50505050506000612c2c565b6001600160a01b03861660009081526009602090815260409182902060010180548351818402810184019094528084526123f093928301828280156123e457602002820191906000526020600020905b8154815260200190600101908083116123d0575b50505050506001612c2c565b6001600160a01b038716600090815260096020908152604091829020600301805483518184028101840190945280845261245c93928301828280156116845760200282019190600052602060002090815481526020019060010190808311611670575050505050612851565b6001600160a01b03881660009081526009602090815260409182902060040180548351818402810184019094528084526124ca93928301828280156124c057602002820191906000526020600020905b8154815260200190600101908083116124ac575b5050505050612c65565b93509350935093509193509193565b3360008181526009602052604081205490916001600160a01b03909116146125135760405162461bcd60e51b815260040161085f906136e2565b612521600380546001019055565b600061252c60035490565b6040805160a0810182528281523360208083019182529282018981526060830189815260808401898152600c805460018101825560009190915285517fdf6966c971051c3d54ec59162606531493a51404a002842f56009d7e5cf4a8c7600590920291820190815594517fdf6966c971051c3d54ec59162606531493a51404a002842f56009d7e5cf4a8c8820180546001600160a01b0319166001600160a01b0390921691909117905592517fdf6966c971051c3d54ec59162606531493a51404a002842f56009d7e5cf4a8c984015590517fdf6966c971051c3d54ec59162606531493a51404a002842f56009d7e5cf4a8ca8301555180519596509294919361265d937fdf6966c971051c3d54ec59162606531493a51404a002842f56009d7e5cf4a8cb90920192910190612e46565b50503360009081526009602090815260408220600301805460018101825590835291200182905550949350505050565b6005546001600160a01b031633146126b75760405162461bcd60e51b815260040161085f906136b3565b60408051600580825260c082019092524291600091906020820160a08036833701905050905060005b6005811015612723576126f4816001613712565b8282815181106127065761270661366c565b60209081029190910101528061271b81613698565b9150506126e0565b5060005b60058110156127985761278561273e826001613712565b61275090670de0b6b3a764000061372a565b61275a8386613712565b6040518060400160405280600d81526020016c4d65746164617461206c696e6b60981b8152506124d9565b508061279081613698565b915050612727565b5060005b60058110156127dd576127ca600080846040518060800160405280605c815260200161374a605c9139611fad565b50806127d581613698565b91505061279c565b5060005b600581101561282f5761281c60016000846040518060400160405280600c81526020016b436f6c6c656374696f6e203160a01b815250611fad565b508061282781613698565b9150506127e1565b505050565b600a8181548110610da957600080fd5b80546001019055565b5490565b60606000825167ffffffffffffffff81111561286f5761286f61327b565b6040519080825280602002602001820160405280156128db57816020015b6128c86040518060a001604052806000815260200160006001600160a01b031681526020016000815260200160008152602001606081525090565b81526020019060019003908161288d5790505b50905060005b8351811015612a3e57600c8482815181106128fe576128fe61366c565b6020026020010151815481106129165761291661366c565b90600052602060002090600502016040518060a0016040529081600082015481526020016001820160009054906101000a90046001600160a01b03166001600160a01b03166001600160a01b03168152602001600282015481526020016003820154815260200160048201805461298c90613631565b80601f01602080910402602001604051908101604052809291908181526020018280546129b890613631565b8015612a055780601f106129da57610100808354040283529160200191612a05565b820191906000526020600020905b8154815290600101906020018083116129e857829003601f168201915b505050505081525050828281518110612a2057612a2061366c565b60200260200101819052508080612a3690613698565b9150506128e1565b5092915050565b600d5460609060009067ffffffffffffffff811115612a6657612a6661327b565b604051908082528060200260200182016040528015612a9f57816020015b612a8c612eb9565b815260200190600190039081612a845790505b5090506000805b600d54811015612c225785600d8281548110612ac457612ac461366c565b906000526020600020906005020160030154148015612b2d5750846001811115612af057612af061303c565b600d8281548110612b0357612b0361366c565b600091825260209091206004600590920201015460ff166001811115612b2b57612b2b61303c565b145b15612c1057600d8181548110612b4557612b4561366c565b90600052602060002090600502016040518060a0016040529081600082015481526020016001820160009054906101000a90046001600160a01b03166001600160a01b03166001600160a01b0316815260200160028201548152602001600382015481526020016004820160009054906101000a900460ff166001811115612bcf57612bcf61303c565b6001811115612be057612be061303c565b81525050838381518110612bf657612bf661366c565b60200260200101819052508180612c0c90613698565b9250505b80612c1a81613698565b915050612aa6565b5090949350505050565b60606000826001811115612c4257612c4261303c565b1415612c5a57612c53836000611150565b90506115c7565b612c53836001611150565b60606000825167ffffffffffffffff811115612c8357612c8361327b565b604051908082528060200260200182016040528015612cbc57816020015b612ca9612eb9565b815260200190600190039081612ca15790505b50905060005b8351811015612a3e57600d848281518110612cdf57612cdf61366c565b602002602001015181548110612cf757612cf761366c565b90600052602060002090600502016040518060a0016040529081600082015481526020016001820160009054906101000a90046001600160a01b03166001600160a01b03166001600160a01b0316815260200160028201548152602001600382015481526020016004820160009054906101000a900460ff166001811115612d8157612d8161303c565b6001811115612d9257612d9261303c565b81525050828281518110612da857612da861366c565b60200260200101819052508080612dbe90613698565b915050612cc2565b6040805160c0810190915260008082526020820190815260200160008152600060208201526060604082018190529081015290565b828054828255906000526020600020908101928215612e36579160200282015b82811115612e36578251825591602001919060010190612e1b565b50612e42929150612f01565b5090565b828054612e5290613631565b90600052602060002090601f016020900481019282612e745760008555612e36565b82601f10612e8d57805160ff1916838001178555612e36565b82800160010185558215612e365791820182811115612e36578251825591602001919060010190612e1b565b6040518060a001604052806000815260200160006001600160a01b03168152602001600081526020016000815260200160006001811115612efc57612efc61303c565b905290565b5b80821115612e425760008155600101612f02565b6000815180845260005b81811015612f3c57602081850181015186830182015201612f20565b81811115612f4e576000602083870101525b50601f01601f19169290920160200192915050565b600082825180855260208086019550808260051b84010181860160005b84811015612feb57858303601f19018952815180518452848101516001600160a01b031685850152604080820151908501526060808201519085015260809081015160a091850182905290612fd781860183612f16565b9a86019a9450505090830190600101612f80565b5090979650505050505050565b60208152600061300b6020830184612f63565b9392505050565b80356004811061097857600080fd5b60006020828403121561303357600080fd5b61300b82613012565b634e487b7160e01b600052602160045260246000fd5b600281106130625761306261303c565b9052565b600481106130625761306261303c565b600060c083018251845260208084015161309282870182613052565b5060408401516130a56040870182613066565b506060848101516001600160a01b03169086015260808085015160c09187019190915280519283905281019160009060e08701905b808310156130fa57845182529383019360019290920191908301906130da565b5060a0860151935086810360a08801526131148185612f16565b979650505050505050565b600081518084526020808501808196508360051b8101915082860160005b85811015613167578284038952613155848351613076565b9885019893509084019060010161313d565b5091979650505050505050565b60208152600061300b602083018461311f565b60006020828403121561319957600080fd5b81356001600160a01b03811681146115c457600080fd5b6000602082840312156131c257600080fd5b5035919050565b85815260018060a01b038516602082015283604082015282606082015260a06080820152600061311460a0830184612f16565b85815261320c6020820186613052565b6132196040820185613066565b6001600160a01b038316606082015260a06080820181905260009061311490830184612f16565b8581526001600160a01b0385166020820152604081018490526060810183905260a081016132716080830184613052565b9695505050505050565b634e487b7160e01b600052604160045260246000fd5b604051601f8201601f1916810167ffffffffffffffff811182821017156132ba576132ba61327b565b604052919050565b600082601f8301126132d357600080fd5b8135602067ffffffffffffffff8211156132ef576132ef61327b565b8160051b6132fe828201613291565b928352848101820192828101908785111561331857600080fd5b83870192505b848310156131145782358252918301919083019061331e565b80356002811061097857600080fd5b6000806040838503121561335957600080fd5b823567ffffffffffffffff81111561337057600080fd5b61337c858286016132c2565b92505061338b60208401613337565b90509250929050565b600080604083850312156133a757600080fd5b8235915061338b60208401613337565b600081518084526020808501945080840160005b8381101561342657815180518852838101516001600160a01b031684890152604080820151908901526060808201519089015260809081015190613411818a0183613052565b505060a09690960195908201906001016133cb565b509495945050505050565b6060815260006134446060830186613076565b82810360208401526134568186612f63565b9050828103604084015261327181856133b7565b60008060006060848603121561347f57600080fd5b833592506020840135915061349660408501613337565b90509250925092565b600082601f8301126134b057600080fd5b813567ffffffffffffffff8111156134ca576134ca61327b565b6134dd601f8201601f1916602001613291565b8181528460208386010111156134f257600080fd5b816020850160208301376000918101602001919091529392505050565b6000806000806080858703121561352557600080fd5b61352e85613337565b935061353c60208601613012565b9250604085013567ffffffffffffffff8082111561355957600080fd5b613565888389016132c2565b9350606087013591508082111561357b57600080fd5b506135888782880161349f565b91505092959194509250565b6080815260006135a7608083018761311f565b82810360208401526135b9818761311f565b905082810360408401526135cd8186612f63565b9050828103606084015261311481856133b7565b6000806000606084860312156135f657600080fd5b8335925060208401359150604084013567ffffffffffffffff81111561361b57600080fd5b6136278682870161349f565b9150509250925092565b600181811c9082168061364557607f821691505b6020821081141561366657634e487b7160e01b600052602260045260246000fd5b50919050565b634e487b7160e01b600052603260045260246000fd5b634e487b7160e01b600052601160045260246000fd5b60006000198214156136ac576136ac613682565b5060010190565b6020808252601590820152742cb7ba9030b932903737ba103a34329037bbb732b960591b604082015260600190565b602080825260169082015275165bdd48185c99481b9bdd081c9959da5cdd195c995960521b604082015260600190565b6000821982111561372557613725613682565b500190565b600081600019048311821515161561374457613744613682565b50029056fe68747470733a2f2f6261666b726569626b6e7535687076677a726b6778367a677a70347a75626b77766f6d37326634786d6567376870717773616e6f706a68366a35712e697066732e6e667473746f726167652e6c696e6b2020202fa2646970667358221220add4553b705ac3b3641e1474575ea179d2244d2b36cea9ada2d89325e5f3f92464736f6c6343000809003368747470733a2f2f6261666b726569626b6e7535687076677a726b6778367a677a70347a75626b77766f6d37326634786d6567376870717773616e6f706a68366a35712e697066732e6e667473746f726167652e6c696e6b2020202f",
  "linkReferences": {},
  "deployedLinkReferences": {}
}