{
  "_format": "hh-sol-artifact-1",
  "contractName": "ERC20Verifier",
  "sourceName": "contracts/ERC20Verifier.sol",
  "abi": [
    {
      "inputs": [
        {
          "internalType": "string",
          "name": "name_",
          "type": "string"
        },
        {
          "internalType": "string",
          "name": "symbol_",
          "type": "string"
        }
      ],
      "stateMutability": "nonpayable",
      "type": "constructor"
    },
    {
      "anonymous": false,
      "inputs": [
        {
          "indexed": true,
          "internalType": "address",
          "name": "owner",
          "type": "address"
        },
        {
          "indexed": true,
          "internalType": "address",
          "name": "spender",
          "type": "address"
        },
        {
          "indexed": false,
          "internalType": "uint256",
          "name": "value",
          "type": "uint256"
        }
      ],
      "name": "Approval",
      "type": "event"
    },
    {
      "anonymous": false,
      "inputs": [
        {
          "indexed": true,
          "internalType": "address",
          "name": "previousOwner",
          "type": "address"
        },
        {
          "indexed": true,
          "internalType": "address",
          "name": "newOwner",
          "type": "address"
        }
      ],
      "name": "OwnershipTransferred",
      "type": "event"
    },
    {
      "anonymous": false,
      "inputs": [
        {
          "indexed": true,
          "internalType": "address",
          "name": "from",
          "type": "address"
        },
        {
          "indexed": true,
          "internalType": "address",
          "name": "to",
          "type": "address"
        },
        {
          "indexed": false,
          "internalType": "uint256",
          "name": "value",
          "type": "uint256"
        }
      ],
      "name": "Transfer",
      "type": "event"
    },
    {
      "inputs": [],
      "name": "TOKEN_AMOUNT_FOR_AIRDROP_PER_ID",
      "outputs": [
        {
          "internalType": "uint256",
          "name": "",
          "type": "uint256"
        }
      ],
      "stateMutability": "view",
      "type": "function"
    },
    {
      "inputs": [],
      "name": "TRANSFER_REQUEST_ID",
      "outputs": [
        {
          "internalType": "uint64",
          "name": "",
          "type": "uint64"
        }
      ],
      "stateMutability": "view",
      "type": "function"
    },
    {
      "inputs": [
        {
          "internalType": "address",
          "name": "",
          "type": "address"
        }
      ],
      "name": "addressToId",
      "outputs": [
        {
          "internalType": "uint256",
          "name": "",
          "type": "uint256"
        }
      ],
      "stateMutability": "view",
      "type": "function"
    },
    {
      "inputs": [
        {
          "internalType": "address",
          "name": "owner",
          "type": "address"
        },
        {
          "internalType": "address",
          "name": "spender",
          "type": "address"
        }
      ],
      "name": "allowance",
      "outputs": [
        {
          "internalType": "uint256",
          "name": "",
          "type": "uint256"
        }
      ],
      "stateMutability": "view",
      "type": "function"
    },
    {
      "inputs": [
        {
          "internalType": "address",
          "name": "spender",
          "type": "address"
        },
        {
          "internalType": "uint256",
          "name": "amount",
          "type": "uint256"
        }
      ],
      "name": "approve",
      "outputs": [
        {
          "internalType": "bool",
          "name": "",
          "type": "bool"
        }
      ],
      "stateMutability": "nonpayable",
      "type": "function"
    },
    {
      "inputs": [
        {
          "internalType": "address",
          "name": "account",
          "type": "address"
        }
      ],
      "name": "balanceOf",
      "outputs": [
        {
          "internalType": "uint256",
          "name": "",
          "type": "uint256"
        }
      ],
      "stateMutability": "view",
      "type": "function"
    },
    {
      "inputs": [],
      "name": "decimals",
      "outputs": [
        {
          "internalType": "uint8",
          "name": "",
          "type": "uint8"
        }
      ],
      "stateMutability": "view",
      "type": "function"
    },
    {
      "inputs": [
        {
          "internalType": "address",
          "name": "spender",
          "type": "address"
        },
        {
          "internalType": "uint256",
          "name": "subtractedValue",
          "type": "uint256"
        }
      ],
      "name": "decreaseAllowance",
      "outputs": [
        {
          "internalType": "bool",
          "name": "",
          "type": "bool"
        }
      ],
      "stateMutability": "nonpayable",
      "type": "function"
    },
    {
      "inputs": [],
      "name": "getSupportedRequests",
      "outputs": [
        {
          "internalType": "uint64[]",
          "name": "arr",
          "type": "uint64[]"
        }
      ],
      "stateMutability": "view",
      "type": "function"
    },
    {
      "inputs": [
        {
          "internalType": "uint64",
          "name": "requestId",
          "type": "uint64"
        }
      ],
      "name": "getZKPRequest",
      "outputs": [
        {
          "components": [
            {
              "internalType": "uint256",
              "name": "schema",
              "type": "uint256"
            },
            {
              "internalType": "uint256",
              "name": "claimPathKey",
              "type": "uint256"
            },
            {
              "internalType": "uint256",
              "name": "operator",
              "type": "uint256"
            },
            {
              "internalType": "uint256[]",
              "name": "value",
              "type": "uint256[]"
            },
            {
              "internalType": "uint256",
              "name": "queryHash",
              "type": "uint256"
            },
            {
              "internalType": "string",
              "name": "circuitId",
              "type": "string"
            }
          ],
          "internalType": "struct ICircuitValidator.CircuitQuery",
          "name": "",
          "type": "tuple"
        }
      ],
      "stateMutability": "view",
      "type": "function"
    },
    {
      "inputs": [
        {
          "internalType": "uint256",
          "name": "",
          "type": "uint256"
        }
      ],
      "name": "idToAddress",
      "outputs": [
        {
          "internalType": "address",
          "name": "",
          "type": "address"
        }
      ],
      "stateMutability": "view",
      "type": "function"
    },
    {
      "inputs": [
        {
          "internalType": "address",
          "name": "spender",
          "type": "address"
        },
        {
          "internalType": "uint256",
          "name": "addedValue",
          "type": "uint256"
        }
      ],
      "name": "increaseAllowance",
      "outputs": [
        {
          "internalType": "bool",
          "name": "",
          "type": "bool"
        }
      ],
      "stateMutability": "nonpayable",
      "type": "function"
    },
    {
      "inputs": [],
      "name": "name",
      "outputs": [
        {
          "internalType": "string",
          "name": "",
          "type": "string"
        }
      ],
      "stateMutability": "view",
      "type": "function"
    },
    {
      "inputs": [],
      "name": "owner",
      "outputs": [
        {
          "internalType": "address",
          "name": "",
          "type": "address"
        }
      ],
      "stateMutability": "view",
      "type": "function"
    },
    {
      "inputs": [
        {
          "internalType": "address",
          "name": "",
          "type": "address"
        },
        {
          "internalType": "uint64",
          "name": "",
          "type": "uint64"
        }
      ],
      "name": "proofs",
      "outputs": [
        {
          "internalType": "bool",
          "name": "",
          "type": "bool"
        }
      ],
      "stateMutability": "view",
      "type": "function"
    },
    {
      "inputs": [],
      "name": "renounceOwnership",
      "outputs": [],
      "stateMutability": "nonpayable",
      "type": "function"
    },
    {
      "inputs": [
        {
          "internalType": "uint64",
          "name": "",
          "type": "uint64"
        }
      ],
      "name": "requestQueries",
      "outputs": [
        {
          "internalType": "uint256",
          "name": "schema",
          "type": "uint256"
        },
        {
          "internalType": "uint256",
          "name": "claimPathKey",
          "type": "uint256"
        },
        {
          "internalType": "uint256",
          "name": "operator",
          "type": "uint256"
        },
        {
          "internalType": "uint256",
          "name": "queryHash",
          "type": "uint256"
        },
        {
          "internalType": "string",
          "name": "circuitId",
          "type": "string"
        }
      ],
      "stateMutability": "view",
      "type": "function"
    },
    {
      "inputs": [
        {
          "internalType": "uint64",
          "name": "",
          "type": "uint64"
        }
      ],
      "name": "requestValidators",
      "outputs": [
        {
          "internalType": "contract ICircuitValidator",
          "name": "",
          "type": "address"
        }
      ],
      "stateMutability": "view",
      "type": "function"
    },
    {
      "inputs": [
        {
          "internalType": "uint64",
          "name": "requestId",
          "type": "uint64"
        },
        {
          "internalType": "contract ICircuitValidator",
          "name": "validator",
          "type": "address"
        },
        {
          "internalType": "uint256",
          "name": "schema",
          "type": "uint256"
        },
        {
          "internalType": "uint256",
          "name": "claimPathKey",
          "type": "uint256"
        },
        {
          "internalType": "uint256",
          "name": "operator",
          "type": "uint256"
        },
        {
          "internalType": "uint256[]",
          "name": "value",
          "type": "uint256[]"
        }
      ],
      "name": "setZKPRequest",
      "outputs": [
        {
          "internalType": "bool",
          "name": "",
          "type": "bool"
        }
      ],
      "stateMutability": "nonpayable",
      "type": "function"
    },
    {
      "inputs": [
        {
          "internalType": "uint64",
          "name": "requestId",
          "type": "uint64"
        },
        {
          "internalType": "contract ICircuitValidator",
          "name": "validator",
          "type": "address"
        },
        {
          "internalType": "uint256",
          "name": "schema",
          "type": "uint256"
        },
        {
          "internalType": "uint256",
          "name": "claimPathKey",
          "type": "uint256"
        },
        {
          "internalType": "uint256",
          "name": "operator",
          "type": "uint256"
        },
        {
          "internalType": "uint256[]",
          "name": "value",
          "type": "uint256[]"
        },
        {
          "internalType": "uint256",
          "name": "queryHash",
          "type": "uint256"
        }
      ],
      "name": "setZKPRequestRaw",
      "outputs": [
        {
          "internalType": "bool",
          "name": "",
          "type": "bool"
        }
      ],
      "stateMutability": "nonpayable",
      "type": "function"
    },
    {
      "inputs": [
        {
          "internalType": "uint64",
          "name": "requestId",
          "type": "uint64"
        },
        {
          "internalType": "uint256[]",
          "name": "inputs",
          "type": "uint256[]"
        },
        {
          "internalType": "uint256[2]",
          "name": "a",
          "type": "uint256[2]"
        },
        {
          "internalType": "uint256[2][2]",
          "name": "b",
          "type": "uint256[2][2]"
        },
        {
          "internalType": "uint256[2]",
          "name": "c",
          "type": "uint256[2]"
        }
      ],
      "name": "submitZKPResponse",
      "outputs": [
        {
          "internalType": "bool",
          "name": "",
          "type": "bool"
        }
      ],
      "stateMutability": "nonpayable",
      "type": "function"
    },
    {
      "inputs": [],
      "name": "symbol",
      "outputs": [
        {
          "internalType": "string",
          "name": "",
          "type": "string"
        }
      ],
      "stateMutability": "view",
      "type": "function"
    },
    {
      "inputs": [],
      "name": "totalSupply",
      "outputs": [
        {
          "internalType": "uint256",
          "name": "",
          "type": "uint256"
        }
      ],
      "stateMutability": "view",
      "type": "function"
    },
    {
      "inputs": [
        {
          "internalType": "address",
          "name": "to",
          "type": "address"
        },
        {
          "internalType": "uint256",
          "name": "amount",
          "type": "uint256"
        }
      ],
      "name": "transfer",
      "outputs": [
        {
          "internalType": "bool",
          "name": "",
          "type": "bool"
        }
      ],
      "stateMutability": "nonpayable",
      "type": "function"
    },
    {
      "inputs": [
        {
          "internalType": "address",
          "name": "from",
          "type": "address"
        },
        {
          "internalType": "address",
          "name": "to",
          "type": "address"
        },
        {
          "internalType": "uint256",
          "name": "amount",
          "type": "uint256"
        }
      ],
      "name": "transferFrom",
      "outputs": [
        {
          "internalType": "bool",
          "name": "",
          "type": "bool"
        }
      ],
      "stateMutability": "nonpayable",
      "type": "function"
    },
    {
      "inputs": [
        {
          "internalType": "address",
          "name": "newOwner",
          "type": "address"
        }
      ],
      "name": "transferOwnership",
      "outputs": [],
      "stateMutability": "nonpayable",
      "type": "function"
    }
  ],
  "bytecode": "0x6080604052620000126012600a620002b7565b6200001f906005620002cc565b600c553480156200002f57600080fd5b5060405162002310380380620023108339810160408190526200005291620003bb565b8151829082906200006b906003906020850190620000fc565b50805162000081906004906020840190620000fc565b5050506200009e62000098620000a660201b60201c565b620000aa565b505062000462565b3390565b600580546001600160a01b038381166001600160a01b0319831681179093556040519116919082907f8be0079c531659141344cd1fd0a4f28419497f9722a3daafe3b4186f6b6457e090600090a35050565b8280546200010a9062000425565b90600052602060002090601f0160209004810192826200012e576000855562000179565b82601f106200014957805160ff191683800117855562000179565b8280016001018555821562000179579182015b82811115620001795782518255916020019190600101906200015c565b50620001879291506200018b565b5090565b5b808211156200018757600081556001016200018c565b634e487b7160e01b600052601160045260246000fd5b600181815b80851115620001f9578160001904821115620001dd57620001dd620001a2565b80851615620001eb57918102915b93841c9390800290620001bd565b509250929050565b6000826200021257506001620002b1565b816200022157506000620002b1565b81600181146200023a5760028114620002455762000265565b6001915050620002b1565b60ff841115620002595762000259620001a2565b50506001821b620002b1565b5060208310610133831016604e8410600b84101617156200028a575081810a620002b1565b620002968383620001b8565b8060001904821115620002ad57620002ad620001a2565b0290505b92915050565b6000620002c5838362000201565b9392505050565b6000816000190483118215151615620002e957620002e9620001a2565b500290565b634e487b7160e01b600052604160045260246000fd5b600082601f8301126200031657600080fd5b81516001600160401b0380821115620003335762000333620002ee565b604051601f8301601f19908116603f011681019082821181831017156200035e576200035e620002ee565b816040528381526020925086838588010111156200037b57600080fd5b600091505b838210156200039f578582018301518183018401529082019062000380565b83821115620003b15760008385830101525b9695505050505050565b60008060408385031215620003cf57600080fd5b82516001600160401b0380821115620003e757600080fd5b620003f58683870162000304565b935060208501519150808211156200040c57600080fd5b506200041b8582860162000304565b9150509250929050565b600181811c908216806200043a57607f821691505b602082108114156200045c57634e487b7160e01b600052602260045260246000fd5b50919050565b611e9e80620004726000396000f3fe608060405234801561001057600080fd5b506004361061018e5760003560e01c806395d89b41116100de578063a9059cbb11610097578063c76d084511610071578063c76d0845146103c0578063cb0e0d7d146103e0578063dd62ed3e14610400578063f2fde38b1461041357600080fd5b8063a9059cbb1461036c578063b45c0fdf1461037f578063b68967e2146103ad57600080fd5b806395d89b41146102de57806396bf4741146102e65780639abdc6451461030a5780639e621bcf1461031d578063a457c2d714610330578063a87231141461034357600080fd5b806337ba95231161014b5780637042f36b116101255780637042f36b1461029157806370a082311461029a578063715018a6146102c35780638da5cb5b146102cd57600080fd5b806337ba952314610249578063395093511461025e57806363ec508f1461027157600080fd5b806306fdde0314610193578063095ea7b3146101b157806318160ddd146101d457806323b872dd146101e65780632a2d0c47146101f9578063313ce5671461023a575b600080fd5b61019b610426565b6040516101a8919061178c565b60405180910390f35b6101c46101bf3660046117bb565b6104b8565b60405190151581526020016101a8565b6002545b6040519081526020016101a8565b6101c46101f43660046117e7565b6104d2565b610222610207366004611828565b600a602052600090815260409020546001600160a01b031681565b6040516001600160a01b0390911681526020016101a8565b604051601281526020016101a8565b6102516104f6565b6040516101a89190611841565b6101c461026c3660046117bb565b61057f565b610279600181565b6040516001600160401b0390911681526020016101a8565b6101d8600c5481565b6101d86102a836600461188e565b6001600160a01b031660009081526020819052604090205490565b6102cb6105a1565b005b6005546001600160a01b0316610222565b61019b6105b5565b6102f96102f43660046118c7565b6105c4565b6040516101a89594939291906118e2565b6101c4610318366004611963565b61067d565b6101c461032b3660046119e6565b6107ec565b6101c461033e3660046117bb565b6109bf565b6102226103513660046118c7565b6008602052600090815260409020546001600160a01b031681565b6101c461037a3660046117bb565b610a3f565b6101c461038d366004611a70565b600660209081526000928352604080842090915290825290205460ff1681565b6101c46103bb366004611ab6565b610a4d565b6103d36103ce3660046118c7565b610d2a565b6040516101a89190611b45565b6101d86103ee36600461188e565b600b6020526000908152604090205481565b6101d861040e366004611bd4565b610e98565b6102cb61042136600461188e565b610ec3565b60606003805461043590611c0d565b80601f016020809104026020016040519081016040528092919081815260200182805461046190611c0d565b80156104ae5780601f10610483576101008083540402835291602001916104ae565b820191906000526020600020905b81548152906001019060200180831161049157829003601f168201915b5050505050905090565b6000336104c6818585610f3c565b60019150505b92915050565b6000336104e0858285611060565b6104eb8585856110da565b506001949350505050565b606060098054806020026020016040519081016040528092919081815260200182805480156104ae57602002820191906000526020600020906000905b82829054906101000a90046001600160401b03166001600160401b0316815260200190600801906020826007010492830192600103820291508084116105335790505050505050905090565b6000336104c68185856105928383610e98565b61059c9190611c48565b610f3c565b6105a9611289565b6105b360006112e3565b565b60606004805461043590611c0d565b6007602052600090815260409020805460018201546002830154600484015460058501805494959394929391926105fa90611c0d565b80601f016020809104026020016040519081016040528092919081815260200182805461062690611c0d565b80156106735780601f1061064857610100808354040283529160200191610673565b820191906000526020600020905b81548152906001019060200180831161065657829003601f168201915b5050505050905085565b6000610687611289565b6040516340ec6e4960e01b815260009073__$933e38ee1bac859086d8d4e5388b6d5e5f$__906340ec6e49906106c39087908790600401611ca4565b60206040518083038186803b1580156106db57600080fd5b505af41580156106ef573d6000803e3d6000fd5b505050506040513d601f19601f820116820180604052508101906107139190611cc0565b9050600073__$149ddb96bf5d692e763ea65f305faba249$__63f5b4a7886040518060c001604052808b8152602001600081526020018981526020018a815260200160008152602001858152506040518263ffffffff1660e01b815260040161077c9190611cd9565b60206040518083038186803b15801561079457600080fd5b505af41580156107a8573d6000803e3d6000fd5b505050506040513d601f19601f820116820180604052508101906107cc9190611cc0565b90506107de8a8a8a8a8a8a8a886107ec565b9a9950505050505050505050565b60006107f6611289565b6001600160401b0389166000908152600860205260409020546001600160a01b031661087a57600980546001810182556000919091527f6e1540171b6c0c960b71a7020d9f60077f6af931a8bbf590da0223dacf75c7af6004820401805460039092166008026101000a6001600160401b0381810219909316928c16029190911790555b6001600160401b038916600090815260076020526040808220600480820186905560029091018890558151632cd1575560e11b815291516001600160a01b038c16936359a2aeaa938084019391929190829003018186803b1580156108de57600080fd5b505afa1580156108f2573d6000803e3d6000fd5b505050506040513d6000823e601f3d908101601f1916820160405261091a9190810190611d20565b6001600160401b038a166000908152600760209081526040909120825161094b936005909201929190910190611660565b506001600160401b03891660009081526007602052604090206001810187905587815561097c9060030185856116e4565b50506001600160401b038816600090815260086020526040902080546001600160a01b0389166001600160a01b0319909116179055600198975050505050505050565b600033816109cd8286610e98565b905083811015610a325760405162461bcd60e51b815260206004820152602560248201527f45524332303a2064656372656173656420616c6c6f77616e63652062656c6f77604482015264207a65726f60d81b60648201526084015b60405180910390fd5b6104eb8286868403610f3c565b6000336104c68185856110da565b6001600160401b0386166000908152600860205260408120546001600160a01b0316610acc5760405162461bcd60e51b815260206004820152602860248201527f76616c696461746f72206973206e6f742073657420666f7220746869732072656044820152671c5d595cdd081a5960c21b6064820152608401610a29565b6001600160401b038716600090815260076020526040902060040154610b405760405162461bcd60e51b8152602060048201526024808201527f7175657279206973206e6f742073657420666f722074686973207265717565736044820152631d081a5960e21b6064820152608401610a29565b610b9c8787878080602002602001604051908101604052809392919081815260200183836020028082843760009201829052506001600160401b038e168152600860205260409020546001600160a01b03169250611335915050565b6001600160401b038716600090815260086020908152604080832054600790925291829020600490810154925163434661ef60e01b81526001600160a01b039092169263434661ef92610bfb928b928b928b928b928b92909101611dc1565b60206040518083038186803b158015610c1357600080fd5b505afa158015610c27573d6000803e3d6000fd5b505050506040513d601f19601f82011682018060405250810190610c4b9190611e30565b610c975760405162461bcd60e51b815260206004820152601b60248201527f70726f6f6620726573706f6e7365206973206e6f742076616c696400000000006044820152606401610a29565b3360009081526006602090815260408083206001600160401b038b168452825291829020805460ff1916600117905581518782028181018301909352878152610d1d928a928a918a9182919085019084908082843760009201829052506001600160401b038e168152600860205260409020546001600160a01b03169250611434915050565b5060019695505050505050565b610d636040518060c001604052806000815260200160008152602001600081526020016060815260200160008152602001606081525090565b6001600160401b038216600090815260076020908152604091829020825160c081018452815481526001820154818401526002820154818501526003820180548551818602810186019096528086529194929360608601939290830182828015610dec57602002820191906000526020600020905b815481526020019060010190808311610dd8575b5050505050815260200160048201548152602001600582018054610e0f90611c0d565b80601f0160208091040260200160405190810160405280929190818152602001828054610e3b90611c0d565b8015610e885780601f10610e5d57610100808354040283529160200191610e88565b820191906000526020600020905b815481529060010190602001808311610e6b57829003601f168201915b5050505050815250509050919050565b6001600160a01b03918216600090815260016020908152604080832093909416825291909152205490565b610ecb611289565b6001600160a01b038116610f305760405162461bcd60e51b815260206004820152602660248201527f4f776e61626c653a206e6577206f776e657220697320746865207a65726f206160448201526564647265737360d01b6064820152608401610a29565b610f39816112e3565b50565b6001600160a01b038316610f9e5760405162461bcd60e51b8152602060048201526024808201527f45524332303a20617070726f76652066726f6d20746865207a65726f206164646044820152637265737360e01b6064820152608401610a29565b6001600160a01b038216610fff5760405162461bcd60e51b815260206004820152602260248201527f45524332303a20617070726f766520746f20746865207a65726f206164647265604482015261737360f01b6064820152608401610a29565b6001600160a01b0383811660008181526001602090815260408083209487168084529482529182902085905590518481527f8c5be1e5ebec7d5bd14f71427d1e84f3dd0314c0f7b2291e5b200ac8c7c3b925910160405180910390a3505050565b600061106c8484610e98565b905060001981146110d457818110156110c75760405162461bcd60e51b815260206004820152601d60248201527f45524332303a20696e73756666696369656e7420616c6c6f77616e63650000006044820152606401610a29565b6110d48484848403610f3c565b50505050565b6001600160a01b03831661113e5760405162461bcd60e51b815260206004820152602560248201527f45524332303a207472616e736665722066726f6d20746865207a65726f206164604482015264647265737360d81b6064820152608401610a29565b6001600160a01b0382166111a05760405162461bcd60e51b815260206004820152602360248201527f45524332303a207472616e7366657220746f20746865207a65726f206164647260448201526265737360e81b6064820152608401610a29565b6111ab838383611439565b6001600160a01b038316600090815260208190526040902054818110156112235760405162461bcd60e51b815260206004820152602660248201527f45524332303a207472616e7366657220616d6f756e7420657863656564732062604482015265616c616e636560d01b6064820152608401610a29565b6001600160a01b03848116600081815260208181526040808320878703905593871680835291849020805487019055925185815290927fddf252ad1be2c89b69c2b068fc378daa952ba7f163c4a11628f55a4df523b3ef910160405180910390a36110d4565b6005546001600160a01b031633146105b35760405162461bcd60e51b815260206004820181905260248201527f4f776e61626c653a2063616c6c6572206973206e6f7420746865206f776e65726044820152606401610a29565b600580546001600160a01b038381166001600160a01b0319831681179093556040519116919082907f8be0079c531659141344cd1fd0a4f28419497f9722a3daafe3b4186f6b6457e090600090a35050565b60006113c983836001600160a01b0316639f442afa6040518163ffffffff1660e01b815260040160206040518083038186803b15801561137457600080fd5b505afa158015611388573d6000803e3d6000fd5b505050506040513d601f19601f820116820180604052508101906113ac9190611cc0565b815181106113bc576113bc611e52565b60200260200101516114d9565b9050336001600160a01b038216146110d45760405162461bcd60e51b815260206004820152602860248201527f6164647265737320696e2070726f6f66206973206e6f7420612073656e646572604482015267206164647265737360c01b6064820152608401610a29565b505050565b6001600160a01b0382166000908152600660209081526040808320600180855292529091205460ff16151514611434576040805162461bcd60e51b81526020600482015260248101919091527f6f6e6c79206964656e7469746965732077686f2070726f76696465642070726f60448201527f6f662061726520616c6c6f77656420746f207265636569766520746f6b656e736064820152608401610a29565b60006104cc61162f61162a8460008190506008817eff00ff00ff00ff00ff00ff00ff00ff00ff00ff00ff00ff00ff00ff00ff00ff16901b6008827fff00ff00ff00ff00ff00ff00ff00ff00ff00ff00ff00ff00ff00ff00ff00ff0016901c1790506010817dffff0000ffff0000ffff0000ffff0000ffff0000ffff0000ffff0000ffff16901b6010827fffff0000ffff0000ffff0000ffff0000ffff0000ffff0000ffff0000ffff000016901c1790506020817bffffffff00000000ffffffff00000000ffffffff00000000ffffffff16901b6020827fffffffff00000000ffffffff00000000ffffffff00000000ffffffff0000000016901c17905060408177ffffffffffffffff0000000000000000ffffffffffffffff16901b60408277ffffffffffffffff0000000000000000ffffffffffffffff1916901c179050608081901b608082901c179050919050565b611636565b6014015190565b60408051602080825281830190925260609160208201818036833750505060208101929092525090565b82805461166c90611c0d565b90600052602060002090601f01602090048101928261168e57600085556116d4565b82601f106116a757805160ff19168380011785556116d4565b828001600101855582156116d4579182015b828111156116d45782518255916020019190600101906116b9565b506116e092915061171f565b5090565b8280548282559060005260206000209081019282156116d4579160200282015b828111156116d4578235825591602001919060010190611704565b5b808211156116e05760008155600101611720565b60005b8381101561174f578181015183820152602001611737565b838111156110d45750506000910152565b60008151808452611778816020860160208601611734565b601f01601f19169290920160200192915050565b60208152600061179f6020830184611760565b9392505050565b6001600160a01b0381168114610f3957600080fd5b600080604083850312156117ce57600080fd5b82356117d9816117a6565b946020939093013593505050565b6000806000606084860312156117fc57600080fd5b8335611807816117a6565b92506020840135611817816117a6565b929592945050506040919091013590565b60006020828403121561183a57600080fd5b5035919050565b6020808252825182820181905260009190848201906040850190845b818110156118825783516001600160401b03168352928401929184019160010161185d565b50909695505050505050565b6000602082840312156118a057600080fd5b813561179f816117a6565b80356001600160401b03811681146118c257600080fd5b919050565b6000602082840312156118d957600080fd5b61179f826118ab565b85815284602082015283604082015282606082015260a06080820152600061190d60a0830184611760565b979650505050505050565b60008083601f84011261192a57600080fd5b5081356001600160401b0381111561194157600080fd5b6020830191508360208260051b850101111561195c57600080fd5b9250929050565b600080600080600080600060c0888a03121561197e57600080fd5b611987886118ab565b96506020880135611997816117a6565b955060408801359450606088013593506080880135925060a08801356001600160401b038111156119c757600080fd5b6119d38a828b01611918565b989b979a50959850939692959293505050565b60008060008060008060008060e0898b031215611a0257600080fd5b611a0b896118ab565b97506020890135611a1b816117a6565b965060408901359550606089013594506080890135935060a08901356001600160401b03811115611a4b57600080fd5b611a578b828c01611918565b999c989b50969995989497949560c00135949350505050565b60008060408385031215611a8357600080fd5b8235611a8e816117a6565b9150611a9c602084016118ab565b90509250929050565b80604081018310156104cc57600080fd5b6000806000806000806101408789031215611ad057600080fd5b611ad9876118ab565b955060208701356001600160401b03811115611af457600080fd5b611b0089828a01611918565b9096509450611b1490508860408901611aa5565b9250610100870188811115611b2857600080fd5b608088019250611b388982611aa5565b9150509295509295509295565b6000602080835260e0830184518285015281850151604085015260408501516060850152606085015160c06080860152818151808452610100870191508483019350600092505b80831015611bac5783518252928401926001929092019190840190611b8c565b50608087015160a087015260a08701519350601f198682030160c087015261190d8185611760565b60008060408385031215611be757600080fd5b8235611bf2816117a6565b91506020830135611c02816117a6565b809150509250929050565b600181811c90821680611c2157607f821691505b60208210811415611c4257634e487b7160e01b600052602260045260246000fd5b50919050565b60008219821115611c6957634e487b7160e01b600052601160045260246000fd5b500190565b81835260006001600160fb1b03831115611c8757600080fd5b8260051b8083602087013760009401602001938452509192915050565b602081526000611cb8602083018486611c6e565b949350505050565b600060208284031215611cd257600080fd5b5051919050565b60c08101818360005b6006811015611d01578151835260209283019290910190600101611ce2565b50505092915050565b634e487b7160e01b600052604160045260246000fd5b600060208284031215611d3257600080fd5b81516001600160401b0380821115611d4957600080fd5b818401915084601f830112611d5d57600080fd5b815181811115611d6f57611d6f611d0a565b604051601f8201601f19908116603f01168101908382118183101715611d9757611d97611d0a565b81604052828152876020848701011115611db057600080fd5b61190d836020830160208801611734565b6000610140808352611dd6818401898b611c6e565b915050604080876020850137600060608401818152879190815b6002811015611e1057848483379084018281529284019290600101611df0565b5050828760e0870137505050610120919091019190915295945050505050565b600060208284031215611e4257600080fd5b8151801515811461179f57600080fd5b634e487b7160e01b600052603260045260246000fdfea26469706673582212207f10f4cb7036731ce9bef7f106a181a8206f9f9a10af02df778a4df7fdf529d164736f6c63430008090033",
  "linkReferences": {
    "contracts/lib/Poseidon.sol": {
      "PoseidonUnit6L": [
        {
          "length": 20,
          "start": 2955
        }
      ]
    },
    "contracts/lib/SpongePoseidon.sol": {
      "SpongePoseidon": [
        {
          "length": 20,
          "start": 2827
        }
      ]
    }
  },
  "deployedLinkReferences": {
    "contracts/lib/Poseidon.sol": {
      "PoseidonUnit6L": [
        {
          "length": 20,
          "start": 1817
        }
      ]
    },
    "contracts/lib/SpongePoseidon.sol": {
      "SpongePoseidon": [
        {
          "length": 20,
          "start": 1689
        }
      ]
    }
  }
}